{
  "contractName": "Controller",
  "abi": [
    {
      "constant": true,
      "inputs": [],
      "name": "mintingFinished",
      "outputs": [
        {
          "name": "",
          "type": "bool"
        }
      ],
      "payable": false,
      "stateMutability": "view",
      "type": "function"
    },
    {
      "constant": false,
      "inputs": [
        {
          "name": "_from",
          "type": "address"
        },
        {
          "name": "_to",
          "type": "address"
        },
        {
          "name": "_amount",
          "type": "uint256"
        },
        {
          "name": "_data",
          "type": "bytes"
        }
      ],
      "name": "transfer",
      "outputs": [],
      "payable": false,
      "stateMutability": "nonpayable",
      "type": "function"
    },
    {
      "constant": true,
      "inputs": [
        {
          "name": "",
          "type": "uint256"
        }
      ],
      "name": "admins",
      "outputs": [
        {
          "name": "",
          "type": "address"
        }
      ],
      "payable": false,
      "stateMutability": "view",
      "type": "function"
    },
    {
      "constant": false,
      "inputs": [
        {
          "name": "_admin",
          "type": "address"
        }
      ],
      "name": "removeAdmin",
      "outputs": [],
      "payable": false,
      "stateMutability": "nonpayable",
      "type": "function"
    },
    {
      "constant": true,
      "inputs": [],
      "name": "totalSupply",
      "outputs": [
        {
          "name": "",
          "type": "uint256"
        }
      ],
      "payable": false,
      "stateMutability": "view",
      "type": "function"
    },
    {
      "constant": true,
      "inputs": [],
      "name": "dataCentreAddr",
      "outputs": [
        {
          "name": "",
          "type": "address"
        }
      ],
      "payable": false,
      "stateMutability": "view",
      "type": "function"
    },
    {
      "constant": false,
      "inputs": [],
      "name": "unpause",
      "outputs": [],
      "payable": false,
      "stateMutability": "nonpayable",
      "type": "function"
    },
    {
      "constant": false,
      "inputs": [
        {
          "name": "_to",
          "type": "address"
        },
        {
          "name": "_amount",
          "type": "uint256"
        }
      ],
      "name": "mint",
      "outputs": [
        {
          "name": "",
          "type": "bool"
        }
      ],
      "payable": false,
      "stateMutability": "nonpayable",
      "type": "function"
    },
    {
      "constant": false,
      "inputs": [
        {
          "name": "_sender",
          "type": "address"
        },
        {
          "name": "_from",
          "type": "address"
        },
        {
          "name": "_to",
          "type": "address"
        },
        {
          "name": "_amount",
          "type": "uint256"
        },
        {
          "name": "_data",
          "type": "bytes"
        }
      ],
      "name": "transferFrom",
      "outputs": [],
      "payable": false,
      "stateMutability": "nonpayable",
      "type": "function"
    },
    {
      "constant": true,
      "inputs": [],
      "name": "paused",
      "outputs": [
        {
          "name": "",
          "type": "bool"
        }
      ],
      "payable": false,
      "stateMutability": "view",
      "type": "function"
    },
    {
      "constant": false,
      "inputs": [
        {
          "name": "_admin",
          "type": "address"
        }
      ],
      "name": "addAdmin",
      "outputs": [],
      "payable": false,
      "stateMutability": "nonpayable",
      "type": "function"
    },
    {
      "constant": true,
      "inputs": [
        {
          "name": "_owner",
          "type": "address"
        }
      ],
      "name": "balanceOf",
      "outputs": [
        {
          "name": "",
          "type": "uint256"
        }
      ],
      "payable": false,
      "stateMutability": "view",
      "type": "function"
    },
    {
      "constant": false,
      "inputs": [],
      "name": "finishMinting",
      "outputs": [
        {
          "name": "",
          "type": "bool"
        }
      ],
      "payable": false,
      "stateMutability": "nonpayable",
      "type": "function"
    },
    {
      "constant": false,
      "inputs": [],
      "name": "pause",
      "outputs": [],
      "payable": false,
      "stateMutability": "nonpayable",
      "type": "function"
    },
    {
      "constant": false,
      "inputs": [],
      "name": "startMinting",
      "outputs": [
        {
          "name": "",
          "type": "bool"
        }
      ],
      "payable": false,
      "stateMutability": "nonpayable",
      "type": "function"
    },
    {
      "constant": true,
      "inputs": [],
      "name": "satellite",
      "outputs": [
        {
          "name": "",
          "type": "address"
        }
      ],
      "payable": false,
      "stateMutability": "view",
      "type": "function"
    },
    {
      "constant": false,
      "inputs": [
        {
          "name": "_newController",
          "type": "address"
        }
      ],
      "name": "kill",
      "outputs": [],
      "payable": false,
      "stateMutability": "nonpayable",
      "type": "function"
    },
    {
      "constant": false,
      "inputs": [
        {
          "name": "_satellite",
          "type": "address"
        },
        {
          "name": "_dataCentreAddr",
          "type": "address"
        }
      ],
      "name": "setContracts",
      "outputs": [],
      "payable": false,
      "stateMutability": "nonpayable",
      "type": "function"
    },
    {
      "constant": true,
      "inputs": [
        {
          "name": "_owner",
          "type": "address"
        },
        {
          "name": "_spender",
          "type": "address"
        }
      ],
      "name": "allowance",
      "outputs": [
        {
          "name": "",
          "type": "uint256"
        }
      ],
      "payable": false,
      "stateMutability": "view",
      "type": "function"
    },
    {
      "constant": false,
      "inputs": [
        {
          "name": "_owner",
          "type": "address"
        },
        {
          "name": "_spender",
          "type": "address"
        },
        {
          "name": "_value",
          "type": "uint256"
        }
      ],
      "name": "approve",
      "outputs": [],
      "payable": false,
      "stateMutability": "nonpayable",
      "type": "function"
    },
    {
      "inputs": [
        {
          "name": "_satellite",
          "type": "address"
        },
        {
          "name": "_dataCentreAddr",
          "type": "address"
        }
      ],
      "payable": false,
      "stateMutability": "nonpayable",
      "type": "constructor"
    },
    {
      "anonymous": false,
      "inputs": [],
      "name": "Pause",
      "type": "event"
    },
    {
      "anonymous": false,
      "inputs": [],
      "name": "Unpause",
      "type": "event"
    }
  ],
  "bytecode": "0x606060405260018060006101000a81548160ff02191690831515021790555034156200002a57600080fd5b60405160408062001f5983398101604052808051906020019091908051906020019091905050818181818060016000816200006691906200014f565b50336000808154811015156200007857fe5b906000526020600020900160006101000a81548173ffffffffffffffffffffffffffffffffffffffff021916908373ffffffffffffffffffffffffffffffffffffffff160217905550806001806101000a81548173ffffffffffffffffffffffffffffffffffffffff021916908373ffffffffffffffffffffffffffffffffffffffff1602179055505081600260006101000a81548173ffffffffffffffffffffffffffffffffffffffff021916908373ffffffffffffffffffffffffffffffffffffffff160217905550505050505050620001a6565b81548183558181151162000179578183600052602060002091820191016200017891906200017e565b5b505050565b620001a391905b808211156200019f57600081600090555060010162000185565b5090565b90565b611da380620001b66000396000f300606060405260043610610112576000357c0100000000000000000000000000000000000000000000000000000000900463ffffffff16806305d2035b1461011757806312a837b41461014457806314bfd6d0146101e85780631785f53c1461024b57806318160ddd146102845780632533bb9d146102ad5780633f4ba83a1461030257806340c10f19146103175780634a280a55146103715780635c975abb14610434578063704802751461046157806370a082311461049a5780637d64bcb4146104e75780638456cb59146105145780639a65ea2614610529578063a2a9a6c114610556578063cbf0b0c0146105ab578063d8952a49146105e4578063dd62ed3e1461063c578063e1f21c67146106a8575b600080fd5b341561012257600080fd5b61012a610709565b604051808215151515815260200191505060405180910390f35b341561014f57600080fd5b6101e6600480803573ffffffffffffffffffffffffffffffffffffffff1690602001909190803573ffffffffffffffffffffffffffffffffffffffff1690602001909190803590602001909190803590602001908201803590602001908080601f0160208091040260200160405190810160405280939291908181526020018383808284378201915050505050509190505061071c565b005b34156101f357600080fd5b61020960048080359060200190919050506107bf565b604051808273ffffffffffffffffffffffffffffffffffffffff1673ffffffffffffffffffffffffffffffffffffffff16815260200191505060405180910390f35b341561025657600080fd5b610282600480803573ffffffffffffffffffffffffffffffffffffffff169060200190919050506107fe565b005b341561028f57600080fd5b610297610916565b6040518082815260200191505060405180910390f35b34156102b857600080fd5b6102c0610a18565b604051808273ffffffffffffffffffffffffffffffffffffffff1673ffffffffffffffffffffffffffffffffffffffff16815260200191505060405180910390f35b341561030d57600080fd5b610315610a3d565b005b341561032257600080fd5b610357600480803573ffffffffffffffffffffffffffffffffffffffff16906020019091908035906020019091905050610adc565b604051808215151515815260200191505060405180910390f35b341561037c57600080fd5b610432600480803573ffffffffffffffffffffffffffffffffffffffff1690602001909190803573ffffffffffffffffffffffffffffffffffffffff1690602001909190803573ffffffffffffffffffffffffffffffffffffffff1690602001909190803590602001909190803590602001908201803590602001908080601f01602080910402602001604051908101604052809392919081815260200183838082843782019150505050505091905050610cac565b005b341561043f57600080fd5b610447610d76565b604051808215151515815260200191505060405180910390f35b341561046c57600080fd5b610498600480803573ffffffffffffffffffffffffffffffffffffffff16906020019091905050610d89565b005b34156104a557600080fd5b6104d1600480803573ffffffffffffffffffffffffffffffffffffffff16906020019091905050610e48565b6040518082815260200191505060405180910390f35b34156104f257600080fd5b6104fa610f58565b604051808215151515815260200191505060405180910390f35b341561051f57600080fd5b610527611065565b005b341561053457600080fd5b61053c611104565b604051808215151515815260200191505060405180910390f35b341561056157600080fd5b610569611211565b604051808273ffffffffffffffffffffffffffffffffffffffff1673ffffffffffffffffffffffffffffffffffffffff16815260200191505060405180910390f35b34156105b657600080fd5b6105e2600480803573ffffffffffffffffffffffffffffffffffffffff16906020019091905050611237565b005b34156105ef57600080fd5b61063a600480803573ffffffffffffffffffffffffffffffffffffffff1690602001909190803573ffffffffffffffffffffffffffffffffffffffff169060200190919050506114f3565b005b341561064757600080fd5b610692600480803573ffffffffffffffffffffffffffffffffffffffff1690602001909190803573ffffffffffffffffffffffffffffffffffffffff169060200190919050506115ce565b6040518082815260200191505060405180910390f35b34156106b357600080fd5b610707600480803573ffffffffffffffffffffffffffffffffffffffff1690602001909190803573ffffffffffffffffffffffffffffffffffffffff16906020019091908035906020019091905050611713565b005b600260149054906101000a900460ff1681565b600260009054906101000a900473ffffffffffffffffffffffffffffffffffffffff1673ffffffffffffffffffffffffffffffffffffffff163373ffffffffffffffffffffffffffffffffffffffff1614151561077857600080fd5b836000610784826117ef565b509050600160009054906101000a900460ff1615806107a05750805b15156107ab57600080fd5b6107b786868686611892565b505050505050565b6000818154811015156107ce57fe5b90600052602060002090016000915054906101000a900473ffffffffffffffffffffffffffffffffffffffff1681565b600080600061080c336117ef565b5090506001151581151514151561082257600080fd5b61082b846117ef565b9250925082151561083b57600080fd5b6000805490508210151561084e57600080fd5b6001600080549050038210156108fa57600060016000805490500381548110151561087557fe5b906000526020600020900160009054906101000a900473ffffffffffffffffffffffffffffffffffffffff166000838154811015156108b057fe5b906000526020600020900160006101000a81548173ffffffffffffffffffffffffffffffffffffffff021916908373ffffffffffffffffffffffffffffffffffffffff1602179055505b600080548091906001900361090f9190611d26565b5050505050565b60006001809054906101000a900473ffffffffffffffffffffffffffffffffffffffff1673ffffffffffffffffffffffffffffffffffffffff16637b01127c6000604051602001526040518163ffffffff167c010000000000000000000000000000000000000000000000000000000002815260040180807f5452490000000000000000000000000000000000000000000000000000000000815250602001807f746f74616c537570706c790000000000000000000000000000000000000000008152506020019050602060405180830381600087803b15156109f857600080fd5b6102c65a03f11515610a0957600080fd5b50505060405180519050905090565b6001809054906101000a900473ffffffffffffffffffffffffffffffffffffffff1681565b6000610a48336117ef565b50905060011515811515141515610a5e57600080fd5b336000610a6a826117ef565b509050600160009054906101000a900460ff1680610a855750805b1515610a9057600080fd5b6000600160006101000a81548160ff0219169083151502179055507f7805862f689e2f13df9f062ff482ad3ad112aca9e0847911ed832e158c525b3360405160405180910390a1505050565b6000826000610aea826117ef565b509050600160009054906101000a900460ff161580610b065750805b1515610b1157600080fd5b6001336000610b1f826117ef565b509050821515600260149054906101000a900460ff161515151480610b415750805b1515610b4c57600080fd5b6000610b57336117ef565b50905060011515811515141515610b6d57600080fd5b610b8f610b8a89610b7c610916565b6119a190919063ffffffff16565b6119c2565b610bb389610bae8a610ba08d610e48565b6119a190919063ffffffff16565b611ab8565b600260009054906101000a900473ffffffffffffffffffffffffffffffffffffffff1673ffffffffffffffffffffffffffffffffffffffff166340c10f198a8a6000604051602001526040518363ffffffff167c0100000000000000000000000000000000000000000000000000000000028152600401808373ffffffffffffffffffffffffffffffffffffffff1673ffffffffffffffffffffffffffffffffffffffff16815260200182815260200192505050602060405180830381600087803b1515610c8057600080fd5b6102c65a03f11515610c9157600080fd5b50505060405180519050506001965050505050505092915050565b600260009054906101000a900473ffffffffffffffffffffffffffffffffffffffff1673ffffffffffffffffffffffffffffffffffffffff163373ffffffffffffffffffffffffffffffffffffffff16141515610d0857600080fd5b846000610d14826117ef565b509050600160009054906101000a900460ff161580610d305750805b1515610d3b57600080fd5b610d618686610d5c87610d4e8b8b6115ce565b611bbb90919063ffffffff16565b611bd7565b610d6d86868686611892565b50505050505050565b600160009054906101000a900460ff1681565b600080610d95336117ef565b50905060011515811515141515610dab57600080fd5b610db4836117ef565b50915081151515610dc457600080fd5b600a600080549050101515610dd857600080fd5b826000808054809190600101610dee9190611d26565b815481101515610dfa57fe5b906000526020600020900160006101000a81548173ffffffffffffffffffffffffffffffffffffffff021916908373ffffffffffffffffffffffffffffffffffffffff160217905550505050565b60006001809054906101000a900473ffffffffffffffffffffffffffffffffffffffff1673ffffffffffffffffffffffffffffffffffffffff1663f4e76a46836000604051602001526040518263ffffffff167c010000000000000000000000000000000000000000000000000000000002815260040180807f54524900000000000000000000000000000000000000000000000000000000008152506020018273ffffffffffffffffffffffffffffffffffffffff1673ffffffffffffffffffffffffffffffffffffffff168152602001915050602060405180830381600087803b1515610f3657600080fd5b6102c65a03f11515610f4757600080fd5b505050604051805190509050919050565b600080610f64336117ef565b50905060011515811515141515610f7a57600080fd5b6001600260146101000a81548160ff021916908315150217905550600260009054906101000a900473ffffffffffffffffffffffffffffffffffffffff1673ffffffffffffffffffffffffffffffffffffffff1663a66fd42b600260149054906101000a900460ff166000604051602001526040518263ffffffff167c01000000000000000000000000000000000000000000000000000000000281526004018082151515158152602001915050602060405180830381600087803b151561104157600080fd5b6102c65a03f1151561105257600080fd5b5050506040518051905050600191505090565b6000611070336117ef565b5090506001151581151514151561108657600080fd5b336000611092826117ef565b509050600160009054906101000a900460ff1615806110ae5750805b15156110b957600080fd5b60018060006101000a81548160ff0219169083151502179055507f6985a02210a168e66602d3235cb6db0e70f92b3ba4d376a33c0f3d9434bff62560405160405180910390a1505050565b600080611110336117ef565b5090506001151581151514151561112657600080fd5b6000600260146101000a81548160ff021916908315150217905550600260009054906101000a900473ffffffffffffffffffffffffffffffffffffffff1673ffffffffffffffffffffffffffffffffffffffff1663a66fd42b600260149054906101000a900460ff166000604051602001526040518263ffffffff167c01000000000000000000000000000000000000000000000000000000000281526004018082151515158152602001915050602060405180830381600087803b15156111ed57600080fd5b6102c65a03f115156111fe57600080fd5b5050506040518051905050600191505090565b600260009054906101000a900473ffffffffffffffffffffffffffffffffffffffff1681565b6000611242336117ef565b5090506001151581151514151561125857600080fd5b336000611264826117ef565b509050600160009054906101000a900460ff168061127f5750805b151561128a57600080fd5b600073ffffffffffffffffffffffffffffffffffffffff166001809054906101000a900473ffffffffffffffffffffffffffffffffffffffff1673ffffffffffffffffffffffffffffffffffffffff161415156113b1576001809054906101000a900473ffffffffffffffffffffffffffffffffffffffff1673ffffffffffffffffffffffffffffffffffffffff1663f2fde38b336040518263ffffffff167c0100000000000000000000000000000000000000000000000000000000028152600401808273ffffffffffffffffffffffffffffffffffffffff1673ffffffffffffffffffffffffffffffffffffffff168152602001915050600060405180830381600087803b151561139c57600080fd5b6102c65a03f115156113ad57600080fd5b5050505b600073ffffffffffffffffffffffffffffffffffffffff16600260009054906101000a900473ffffffffffffffffffffffffffffffffffffffff1673ffffffffffffffffffffffffffffffffffffffff161415156114da57600260009054906101000a900473ffffffffffffffffffffffffffffffffffffffff1673ffffffffffffffffffffffffffffffffffffffff1663f2fde38b336040518263ffffffff167c0100000000000000000000000000000000000000000000000000000000028152600401808273ffffffffffffffffffffffffffffffffffffffff1673ffffffffffffffffffffffffffffffffffffffff168152602001915050600060405180830381600087803b15156114c557600080fd5b6102c65a03f115156114d657600080fd5b5050505b8373ffffffffffffffffffffffffffffffffffffffff16ff5b60006114fe336117ef565b5090506001151581151514151561151457600080fd5b336000611520826117ef565b509050600160009054906101000a900460ff168061153b5750805b151561154657600080fd5b836001806101000a81548173ffffffffffffffffffffffffffffffffffffffff021916908373ffffffffffffffffffffffffffffffffffffffff16021790555084600260006101000a81548173ffffffffffffffffffffffffffffffffffffffff021916908373ffffffffffffffffffffffffffffffffffffffff1602179055505050505050565b60006001809054906101000a900473ffffffffffffffffffffffffffffffffffffffff1673ffffffffffffffffffffffffffffffffffffffff1663eb8fb3ec84846000604051602001526040518363ffffffff167c010000000000000000000000000000000000000000000000000000000002815260040180807f54524900000000000000000000000000000000000000000000000000000000008152506020018373ffffffffffffffffffffffffffffffffffffffff1673ffffffffffffffffffffffffffffffffffffffff1681526020018273ffffffffffffffffffffffffffffffffffffffff1673ffffffffffffffffffffffffffffffffffffffff16815260200192505050602060405180830381600087803b15156116f057600080fd5b6102c65a03f1151561170157600080fd5b50505060405180519050905092915050565b600260009054906101000a900473ffffffffffffffffffffffffffffffffffffffff1673ffffffffffffffffffffffffffffffffffffffff163373ffffffffffffffffffffffffffffffffffffffff1614151561176f57600080fd5b82600061177b826117ef565b509050600160009054906101000a900460ff1615806117975750805b15156117a257600080fd5b8373ffffffffffffffffffffffffffffffffffffffff168573ffffffffffffffffffffffffffffffffffffffff16141515156117dd57600080fd5b6117e8858585611bd7565b5050505050565b6000806000809250600090505b60008054905081101561188c5760008181548110151561181857fe5b906000526020600020900160009054906101000a900473ffffffffffffffffffffffffffffffffffffffff1673ffffffffffffffffffffffffffffffffffffffff168473ffffffffffffffffffffffffffffffffffffffff16141561187f57600192508091505b80806001019150506117fc565b50915091565b3073ffffffffffffffffffffffffffffffffffffffff168373ffffffffffffffffffffffffffffffffffffffff16141515156118cd57600080fd5b600073ffffffffffffffffffffffffffffffffffffffff168373ffffffffffffffffffffffffffffffffffffffff161415151561190957600080fd5b60008211151561191857600080fd5b8273ffffffffffffffffffffffffffffffffffffffff168473ffffffffffffffffffffffffffffffffffffffff161415151561195357600080fd5b611977846119728461196488610e48565b611bbb90919063ffffffff16565b611ab8565b61199b836119968461198887610e48565b6119a190919063ffffffff16565b611ab8565b50505050565b60008082840190508381101515156119b857600080fd5b8091505092915050565b6001809054906101000a900473ffffffffffffffffffffffffffffffffffffffff1673ffffffffffffffffffffffffffffffffffffffff1663a9d85266826040518263ffffffff167c010000000000000000000000000000000000000000000000000000000002815260040180807f5452490000000000000000000000000000000000000000000000000000000000815250602001807f746f74616c537570706c79000000000000000000000000000000000000000000815250602001828152602001915050600060405180830381600087803b1515611aa157600080fd5b6102c65a03f11515611ab257600080fd5b50505050565b6001809054906101000a900473ffffffffffffffffffffffffffffffffffffffff1673ffffffffffffffffffffffffffffffffffffffff1663a309f2ee83836040518363ffffffff167c010000000000000000000000000000000000000000000000000000000002815260040180807f54524900000000000000000000000000000000000000000000000000000000008152506020018373ffffffffffffffffffffffffffffffffffffffff1673ffffffffffffffffffffffffffffffffffffffff16815260200182815260200192505050600060405180830381600087803b1515611ba357600080fd5b6102c65a03f11515611bb457600080fd5b5050505050565b6000828211151515611bcc57600080fd5b818303905092915050565b80611be184610e48565b10151515611bee57600080fd5b6001809054906101000a900473ffffffffffffffffffffffffffffffffffffffff1673ffffffffffffffffffffffffffffffffffffffff16637dc4feb78484846040518463ffffffff167c010000000000000000000000000000000000000000000000000000000002815260040180807f54524900000000000000000000000000000000000000000000000000000000008152506020018473ffffffffffffffffffffffffffffffffffffffff1673ffffffffffffffffffffffffffffffffffffffff1681526020018373ffffffffffffffffffffffffffffffffffffffff1673ffffffffffffffffffffffffffffffffffffffff1681526020018281526020019350505050600060405180830381600087803b1515611d0d57600080fd5b6102c65a03f11515611d1e57600080fd5b505050505050565b815481835581811511611d4d57818360005260206000209182019101611d4c9190611d52565b5b505050565b611d7491905b80821115611d70576000816000905550600101611d58565b5090565b905600a165627a7a7230582045c65c40f16c9f6c77f2d283fd40386fe1874d9846c380cd482f307b0f0977130029",
  "source": "pragma solidity ^0.4.18;\n\nimport './CrowdsaleControl.sol';\n\n\n/**\n Simple Token based on OpenZeppelin token contract\n */\ncontract Controller is CrowdsaleControl {\n\n    /**\n    * @dev Constructor that gives msg.sender all of existing tokens.\n    */\n    function Controller(address _satellite, address _dataCentreAddr) public\n        CrowdsaleControl(_satellite, _dataCentreAddr)\n    {\n\n    }\n\n    // Owner Functions\n    function setContracts(address _satellite, address _dataCentreAddr) public onlyAdmins whenPaused(msg.sender) {\n        dataCentreAddr = _dataCentreAddr;\n        satellite = _satellite;\n    }\n\n    function kill(address _newController) public onlyAdmins whenPaused(msg.sender) {\n        if (dataCentreAddr != address(0)) { \n            Ownable(dataCentreAddr).transferOwnership(msg.sender);\n        }\n        if (satellite != address(0)) {\n            Ownable(satellite).transferOwnership(msg.sender);\n        }\n        selfdestruct(_newController);\n    }\n}\n",
  "sourcePath": "/mnt/data/dev/TokenSaleContracts/contracts/controller/Controller.sol",
  "compiler": {
    "name": "solc",
    "version": "0.4.18+commit.9cf6e910.Emscripten.clang"
  },
  "schemaVersion": "1.0.1",
  "updatedAt": "2018-02-16T17:37:23.002Z"
}