{
  "contractName": "CrowdsaleControl",
  "abi": [
    {
      "constant": true,
      "inputs": [],
      "name": "mintingFinished",
      "outputs": [
        {
          "name": "",
          "type": "bool"
        }
      ],
      "payable": false,
      "stateMutability": "view",
      "type": "function"
    },
    {
      "constant": false,
      "inputs": [
        {
          "name": "_from",
          "type": "address"
        },
        {
          "name": "_to",
          "type": "address"
        },
        {
          "name": "_amount",
          "type": "uint256"
        },
        {
          "name": "_data",
          "type": "bytes"
        }
      ],
      "name": "transfer",
      "outputs": [],
      "payable": false,
      "stateMutability": "nonpayable",
      "type": "function"
    },
    {
      "constant": true,
      "inputs": [
        {
          "name": "",
          "type": "uint256"
        }
      ],
      "name": "admins",
      "outputs": [
        {
          "name": "",
          "type": "address"
        }
      ],
      "payable": false,
      "stateMutability": "view",
      "type": "function"
    },
    {
      "constant": false,
      "inputs": [
        {
          "name": "_admin",
          "type": "address"
        }
      ],
      "name": "removeAdmin",
      "outputs": [],
      "payable": false,
      "stateMutability": "nonpayable",
      "type": "function"
    },
    {
      "constant": true,
      "inputs": [],
      "name": "totalSupply",
      "outputs": [
        {
          "name": "",
          "type": "uint256"
        }
      ],
      "payable": false,
      "stateMutability": "view",
      "type": "function"
    },
    {
      "constant": true,
      "inputs": [],
      "name": "dataCentreAddr",
      "outputs": [
        {
          "name": "",
          "type": "address"
        }
      ],
      "payable": false,
      "stateMutability": "view",
      "type": "function"
    },
    {
      "constant": false,
      "inputs": [],
      "name": "unpause",
      "outputs": [],
      "payable": false,
      "stateMutability": "nonpayable",
      "type": "function"
    },
    {
      "constant": false,
      "inputs": [
        {
          "name": "_to",
          "type": "address"
        },
        {
          "name": "_amount",
          "type": "uint256"
        }
      ],
      "name": "mint",
      "outputs": [
        {
          "name": "",
          "type": "bool"
        }
      ],
      "payable": false,
      "stateMutability": "nonpayable",
      "type": "function"
    },
    {
      "constant": false,
      "inputs": [
        {
          "name": "_sender",
          "type": "address"
        },
        {
          "name": "_from",
          "type": "address"
        },
        {
          "name": "_to",
          "type": "address"
        },
        {
          "name": "_amount",
          "type": "uint256"
        },
        {
          "name": "_data",
          "type": "bytes"
        }
      ],
      "name": "transferFrom",
      "outputs": [],
      "payable": false,
      "stateMutability": "nonpayable",
      "type": "function"
    },
    {
      "constant": true,
      "inputs": [],
      "name": "paused",
      "outputs": [
        {
          "name": "",
          "type": "bool"
        }
      ],
      "payable": false,
      "stateMutability": "view",
      "type": "function"
    },
    {
      "constant": false,
      "inputs": [
        {
          "name": "_admin",
          "type": "address"
        }
      ],
      "name": "addAdmin",
      "outputs": [],
      "payable": false,
      "stateMutability": "nonpayable",
      "type": "function"
    },
    {
      "constant": true,
      "inputs": [
        {
          "name": "_owner",
          "type": "address"
        }
      ],
      "name": "balanceOf",
      "outputs": [
        {
          "name": "",
          "type": "uint256"
        }
      ],
      "payable": false,
      "stateMutability": "view",
      "type": "function"
    },
    {
      "constant": false,
      "inputs": [],
      "name": "finishMinting",
      "outputs": [
        {
          "name": "",
          "type": "bool"
        }
      ],
      "payable": false,
      "stateMutability": "nonpayable",
      "type": "function"
    },
    {
      "constant": false,
      "inputs": [],
      "name": "pause",
      "outputs": [],
      "payable": false,
      "stateMutability": "nonpayable",
      "type": "function"
    },
    {
      "constant": false,
      "inputs": [],
      "name": "startMinting",
      "outputs": [
        {
          "name": "",
          "type": "bool"
        }
      ],
      "payable": false,
      "stateMutability": "nonpayable",
      "type": "function"
    },
    {
      "constant": true,
      "inputs": [],
      "name": "satellite",
      "outputs": [
        {
          "name": "",
          "type": "address"
        }
      ],
      "payable": false,
      "stateMutability": "view",
      "type": "function"
    },
    {
      "constant": true,
      "inputs": [
        {
          "name": "_owner",
          "type": "address"
        },
        {
          "name": "_spender",
          "type": "address"
        }
      ],
      "name": "allowance",
      "outputs": [
        {
          "name": "",
          "type": "uint256"
        }
      ],
      "payable": false,
      "stateMutability": "view",
      "type": "function"
    },
    {
      "constant": false,
      "inputs": [
        {
          "name": "_owner",
          "type": "address"
        },
        {
          "name": "_spender",
          "type": "address"
        },
        {
          "name": "_value",
          "type": "uint256"
        }
      ],
      "name": "approve",
      "outputs": [],
      "payable": false,
      "stateMutability": "nonpayable",
      "type": "function"
    },
    {
      "inputs": [
        {
          "name": "_satellite",
          "type": "address"
        },
        {
          "name": "_dataCentreAddr",
          "type": "address"
        }
      ],
      "payable": false,
      "stateMutability": "nonpayable",
      "type": "constructor"
    },
    {
      "anonymous": false,
      "inputs": [],
      "name": "Pause",
      "type": "event"
    },
    {
      "anonymous": false,
      "inputs": [],
      "name": "Unpause",
      "type": "event"
    }
  ],
  "bytecode": "0x606060405260018060006101000a81548160ff02191690831515021790555034156200002a57600080fd5b60405160408062001b178339810160405280805190602001909190805190602001909190505081818060016000816200006491906200014b565b50336000808154811015156200007657fe5b906000526020600020900160006101000a81548173ffffffffffffffffffffffffffffffffffffffff021916908373ffffffffffffffffffffffffffffffffffffffff160217905550806001806101000a81548173ffffffffffffffffffffffffffffffffffffffff021916908373ffffffffffffffffffffffffffffffffffffffff1602179055505081600260006101000a81548173ffffffffffffffffffffffffffffffffffffffff021916908373ffffffffffffffffffffffffffffffffffffffff16021790555050505050620001a2565b81548183558181151162000175578183600052602060002091820191016200017491906200017a565b5b505050565b6200019f91905b808211156200019b57600081600090555060010162000181565b5090565b90565b61196580620001b26000396000f3006060604052600436106100fc576000357c0100000000000000000000000000000000000000000000000000000000900463ffffffff16806305d2035b1461010157806312a837b41461012e57806314bfd6d0146101d25780631785f53c1461023557806318160ddd1461026e5780632533bb9d146102975780633f4ba83a146102ec57806340c10f19146103015780634a280a551461035b5780635c975abb1461041e578063704802751461044b57806370a08231146104845780637d64bcb4146104d15780638456cb59146104fe5780639a65ea2614610513578063a2a9a6c114610540578063dd62ed3e14610595578063e1f21c6714610601575b600080fd5b341561010c57600080fd5b610114610662565b604051808215151515815260200191505060405180910390f35b341561013957600080fd5b6101d0600480803573ffffffffffffffffffffffffffffffffffffffff1690602001909190803573ffffffffffffffffffffffffffffffffffffffff1690602001909190803590602001909190803590602001908201803590602001908080601f01602080910402602001604051908101604052809392919081815260200183838082843782019150505050505091905050610675565b005b34156101dd57600080fd5b6101f36004808035906020019091905050610718565b604051808273ffffffffffffffffffffffffffffffffffffffff1673ffffffffffffffffffffffffffffffffffffffff16815260200191505060405180910390f35b341561024057600080fd5b61026c600480803573ffffffffffffffffffffffffffffffffffffffff16906020019091905050610757565b005b341561027957600080fd5b61028161086f565b6040518082815260200191505060405180910390f35b34156102a257600080fd5b6102aa610971565b604051808273ffffffffffffffffffffffffffffffffffffffff1673ffffffffffffffffffffffffffffffffffffffff16815260200191505060405180910390f35b34156102f757600080fd5b6102ff610996565b005b341561030c57600080fd5b610341600480803573ffffffffffffffffffffffffffffffffffffffff16906020019091908035906020019091905050610a35565b604051808215151515815260200191505060405180910390f35b341561036657600080fd5b61041c600480803573ffffffffffffffffffffffffffffffffffffffff1690602001909190803573ffffffffffffffffffffffffffffffffffffffff1690602001909190803573ffffffffffffffffffffffffffffffffffffffff1690602001909190803590602001909190803590602001908201803590602001908080601f01602080910402602001604051908101604052809392919081815260200183838082843782019150505050505091905050610c05565b005b341561042957600080fd5b610431610ccf565b604051808215151515815260200191505060405180910390f35b341561045657600080fd5b610482600480803573ffffffffffffffffffffffffffffffffffffffff16906020019091905050610ce2565b005b341561048f57600080fd5b6104bb600480803573ffffffffffffffffffffffffffffffffffffffff16906020019091905050610da1565b6040518082815260200191505060405180910390f35b34156104dc57600080fd5b6104e4610eb1565b604051808215151515815260200191505060405180910390f35b341561050957600080fd5b610511610fbe565b005b341561051e57600080fd5b61052661105d565b604051808215151515815260200191505060405180910390f35b341561054b57600080fd5b61055361116a565b604051808273ffffffffffffffffffffffffffffffffffffffff1673ffffffffffffffffffffffffffffffffffffffff16815260200191505060405180910390f35b34156105a057600080fd5b6105eb600480803573ffffffffffffffffffffffffffffffffffffffff1690602001909190803573ffffffffffffffffffffffffffffffffffffffff16906020019091905050611190565b6040518082815260200191505060405180910390f35b341561060c57600080fd5b610660600480803573ffffffffffffffffffffffffffffffffffffffff1690602001909190803573ffffffffffffffffffffffffffffffffffffffff169060200190919080359060200190919050506112d5565b005b600260149054906101000a900460ff1681565b600260009054906101000a900473ffffffffffffffffffffffffffffffffffffffff1673ffffffffffffffffffffffffffffffffffffffff163373ffffffffffffffffffffffffffffffffffffffff161415156106d157600080fd5b8360006106dd826113b1565b509050600160009054906101000a900460ff1615806106f95750805b151561070457600080fd5b61071086868686611454565b505050505050565b60008181548110151561072757fe5b90600052602060002090016000915054906101000a900473ffffffffffffffffffffffffffffffffffffffff1681565b6000806000610765336113b1565b5090506001151581151514151561077b57600080fd5b610784846113b1565b9250925082151561079457600080fd5b600080549050821015156107a757600080fd5b6001600080549050038210156108535760006001600080549050038154811015156107ce57fe5b906000526020600020900160009054906101000a900473ffffffffffffffffffffffffffffffffffffffff1660008381548110151561080957fe5b906000526020600020900160006101000a81548173ffffffffffffffffffffffffffffffffffffffff021916908373ffffffffffffffffffffffffffffffffffffffff1602179055505b600080548091906001900361086891906118e8565b5050505050565b60006001809054906101000a900473ffffffffffffffffffffffffffffffffffffffff1673ffffffffffffffffffffffffffffffffffffffff16637b01127c6000604051602001526040518163ffffffff167c010000000000000000000000000000000000000000000000000000000002815260040180807f5452490000000000000000000000000000000000000000000000000000000000815250602001807f746f74616c537570706c790000000000000000000000000000000000000000008152506020019050602060405180830381600087803b151561095157600080fd5b6102c65a03f1151561096257600080fd5b50505060405180519050905090565b6001809054906101000a900473ffffffffffffffffffffffffffffffffffffffff1681565b60006109a1336113b1565b509050600115158115151415156109b757600080fd5b3360006109c3826113b1565b509050600160009054906101000a900460ff16806109de5750805b15156109e957600080fd5b6000600160006101000a81548160ff0219169083151502179055507f7805862f689e2f13df9f062ff482ad3ad112aca9e0847911ed832e158c525b3360405160405180910390a1505050565b6000826000610a43826113b1565b509050600160009054906101000a900460ff161580610a5f5750805b1515610a6a57600080fd5b6001336000610a78826113b1565b509050821515600260149054906101000a900460ff161515151480610a9a5750805b1515610aa557600080fd5b6000610ab0336113b1565b50905060011515811515141515610ac657600080fd5b610ae8610ae389610ad561086f565b61156390919063ffffffff16565b611584565b610b0c89610b078a610af98d610da1565b61156390919063ffffffff16565b61167a565b600260009054906101000a900473ffffffffffffffffffffffffffffffffffffffff1673ffffffffffffffffffffffffffffffffffffffff166340c10f198a8a6000604051602001526040518363ffffffff167c0100000000000000000000000000000000000000000000000000000000028152600401808373ffffffffffffffffffffffffffffffffffffffff1673ffffffffffffffffffffffffffffffffffffffff16815260200182815260200192505050602060405180830381600087803b1515610bd957600080fd5b6102c65a03f11515610bea57600080fd5b50505060405180519050506001965050505050505092915050565b600260009054906101000a900473ffffffffffffffffffffffffffffffffffffffff1673ffffffffffffffffffffffffffffffffffffffff163373ffffffffffffffffffffffffffffffffffffffff16141515610c6157600080fd5b846000610c6d826113b1565b509050600160009054906101000a900460ff161580610c895750805b1515610c9457600080fd5b610cba8686610cb587610ca78b8b611190565b61177d90919063ffffffff16565b611799565b610cc686868686611454565b50505050505050565b600160009054906101000a900460ff1681565b600080610cee336113b1565b50905060011515811515141515610d0457600080fd5b610d0d836113b1565b50915081151515610d1d57600080fd5b600a600080549050101515610d3157600080fd5b826000808054809190600101610d4791906118e8565b815481101515610d5357fe5b906000526020600020900160006101000a81548173ffffffffffffffffffffffffffffffffffffffff021916908373ffffffffffffffffffffffffffffffffffffffff160217905550505050565b60006001809054906101000a900473ffffffffffffffffffffffffffffffffffffffff1673ffffffffffffffffffffffffffffffffffffffff1663f4e76a46836000604051602001526040518263ffffffff167c010000000000000000000000000000000000000000000000000000000002815260040180807f54524900000000000000000000000000000000000000000000000000000000008152506020018273ffffffffffffffffffffffffffffffffffffffff1673ffffffffffffffffffffffffffffffffffffffff168152602001915050602060405180830381600087803b1515610e8f57600080fd5b6102c65a03f11515610ea057600080fd5b505050604051805190509050919050565b600080610ebd336113b1565b50905060011515811515141515610ed357600080fd5b6001600260146101000a81548160ff021916908315150217905550600260009054906101000a900473ffffffffffffffffffffffffffffffffffffffff1673ffffffffffffffffffffffffffffffffffffffff1663a66fd42b600260149054906101000a900460ff166000604051602001526040518263ffffffff167c01000000000000000000000000000000000000000000000000000000000281526004018082151515158152602001915050602060405180830381600087803b1515610f9a57600080fd5b6102c65a03f11515610fab57600080fd5b5050506040518051905050600191505090565b6000610fc9336113b1565b50905060011515811515141515610fdf57600080fd5b336000610feb826113b1565b509050600160009054906101000a900460ff1615806110075750805b151561101257600080fd5b60018060006101000a81548160ff0219169083151502179055507f6985a02210a168e66602d3235cb6db0e70f92b3ba4d376a33c0f3d9434bff62560405160405180910390a1505050565b600080611069336113b1565b5090506001151581151514151561107f57600080fd5b6000600260146101000a81548160ff021916908315150217905550600260009054906101000a900473ffffffffffffffffffffffffffffffffffffffff1673ffffffffffffffffffffffffffffffffffffffff1663a66fd42b600260149054906101000a900460ff166000604051602001526040518263ffffffff167c01000000000000000000000000000000000000000000000000000000000281526004018082151515158152602001915050602060405180830381600087803b151561114657600080fd5b6102c65a03f1151561115757600080fd5b5050506040518051905050600191505090565b600260009054906101000a900473ffffffffffffffffffffffffffffffffffffffff1681565b60006001809054906101000a900473ffffffffffffffffffffffffffffffffffffffff1673ffffffffffffffffffffffffffffffffffffffff1663eb8fb3ec84846000604051602001526040518363ffffffff167c010000000000000000000000000000000000000000000000000000000002815260040180807f54524900000000000000000000000000000000000000000000000000000000008152506020018373ffffffffffffffffffffffffffffffffffffffff1673ffffffffffffffffffffffffffffffffffffffff1681526020018273ffffffffffffffffffffffffffffffffffffffff1673ffffffffffffffffffffffffffffffffffffffff16815260200192505050602060405180830381600087803b15156112b257600080fd5b6102c65a03f115156112c357600080fd5b50505060405180519050905092915050565b600260009054906101000a900473ffffffffffffffffffffffffffffffffffffffff1673ffffffffffffffffffffffffffffffffffffffff163373ffffffffffffffffffffffffffffffffffffffff1614151561133157600080fd5b82600061133d826113b1565b509050600160009054906101000a900460ff1615806113595750805b151561136457600080fd5b8373ffffffffffffffffffffffffffffffffffffffff168573ffffffffffffffffffffffffffffffffffffffff161415151561139f57600080fd5b6113aa858585611799565b5050505050565b6000806000809250600090505b60008054905081101561144e576000818154811015156113da57fe5b906000526020600020900160009054906101000a900473ffffffffffffffffffffffffffffffffffffffff1673ffffffffffffffffffffffffffffffffffffffff168473ffffffffffffffffffffffffffffffffffffffff16141561144157600192508091505b80806001019150506113be565b50915091565b3073ffffffffffffffffffffffffffffffffffffffff168373ffffffffffffffffffffffffffffffffffffffff161415151561148f57600080fd5b600073ffffffffffffffffffffffffffffffffffffffff168373ffffffffffffffffffffffffffffffffffffffff16141515156114cb57600080fd5b6000821115156114da57600080fd5b8273ffffffffffffffffffffffffffffffffffffffff168473ffffffffffffffffffffffffffffffffffffffff161415151561151557600080fd5b611539846115348461152688610da1565b61177d90919063ffffffff16565b61167a565b61155d836115588461154a87610da1565b61156390919063ffffffff16565b61167a565b50505050565b600080828401905083811015151561157a57600080fd5b8091505092915050565b6001809054906101000a900473ffffffffffffffffffffffffffffffffffffffff1673ffffffffffffffffffffffffffffffffffffffff1663a9d85266826040518263ffffffff167c010000000000000000000000000000000000000000000000000000000002815260040180807f5452490000000000000000000000000000000000000000000000000000000000815250602001807f746f74616c537570706c79000000000000000000000000000000000000000000815250602001828152602001915050600060405180830381600087803b151561166357600080fd5b6102c65a03f1151561167457600080fd5b50505050565b6001809054906101000a900473ffffffffffffffffffffffffffffffffffffffff1673ffffffffffffffffffffffffffffffffffffffff1663a309f2ee83836040518363ffffffff167c010000000000000000000000000000000000000000000000000000000002815260040180807f54524900000000000000000000000000000000000000000000000000000000008152506020018373ffffffffffffffffffffffffffffffffffffffff1673ffffffffffffffffffffffffffffffffffffffff16815260200182815260200192505050600060405180830381600087803b151561176557600080fd5b6102c65a03f1151561177657600080fd5b5050505050565b600082821115151561178e57600080fd5b818303905092915050565b806117a384610da1565b101515156117b057600080fd5b6001809054906101000a900473ffffffffffffffffffffffffffffffffffffffff1673ffffffffffffffffffffffffffffffffffffffff16637dc4feb78484846040518463ffffffff167c010000000000000000000000000000000000000000000000000000000002815260040180807f54524900000000000000000000000000000000000000000000000000000000008152506020018473ffffffffffffffffffffffffffffffffffffffff1673ffffffffffffffffffffffffffffffffffffffff1681526020018373ffffffffffffffffffffffffffffffffffffffff1673ffffffffffffffffffffffffffffffffffffffff1681526020018281526020019350505050600060405180830381600087803b15156118cf57600080fd5b6102c65a03f115156118e057600080fd5b505050505050565b81548183558181151161190f5781836000526020600020918201910161190e9190611914565b5b505050565b61193691905b8082111561193257600081600090555060010161191a565b5090565b905600a165627a7a72305820e8142c4da4b99df73cba00f38058f850731ac2f45118098bd4ff0d12f6f411da0029",
  "source": "pragma solidity ^0.4.18;\n\nimport './SimpleControl.sol';\nimport '../token/Token.sol';\n\n\ncontract CrowdsaleControl is SimpleControl {\n    using SafeMath for uint;\n\n    // not necessary to store in data centre\n    bool public mintingFinished;\n\n    modifier canMint(bool status, address _to) {\n        var(adminStatus, ) = isAdmin(_to);\n        require(!mintingFinished == status || adminStatus);\n        _;\n    }\n\n    function CrowdsaleControl(address _satellite, address _dataCentreAddr) public\n        SimpleControl(_satellite, _dataCentreAddr)\n    {\n\n    }\n\n    function mint(address _to, uint256 _amount) whenNotPaused(_to) canMint(true, msg.sender) onlyAdmins public returns (bool) {\n        _setTotalSupply(totalSupply().add(_amount));\n        _setBalanceOf(_to, balanceOf(_to).add(_amount));\n        Token(satellite).mint(_to, _amount);\n        return true;\n    }\n\n    function startMinting() onlyAdmins public returns (bool) {\n        mintingFinished = false;\n        Token(satellite).mintToggle(mintingFinished);\n        return true;\n    }\n\n    function finishMinting() onlyAdmins public returns (bool) {\n        mintingFinished = true;\n        Token(satellite).mintToggle(mintingFinished);\n        return true;\n    }\n}\n",
  "sourcePath": "/mnt/data/dev/TokenSaleContracts/contracts/controller/CrowdsaleControl.sol",
  "compiler": {
    "name": "solc",
    "version": "0.4.18+commit.9cf6e910.Emscripten.clang"
  },
  "schemaVersion": "1.0.1",
  "updatedAt": "2018-02-16T17:37:23.003Z"
}