{
  "contractName": "DataCentre",
  "abi": [
    {
      "constant": false,
      "inputs": [
        {
          "name": "_container",
          "type": "bytes32"
        },
        {
          "name": "_key",
          "type": "bytes32"
        },
        {
          "name": "_value",
          "type": "address"
        }
      ],
      "name": "setAddress",
      "outputs": [],
      "payable": false,
      "stateMutability": "nonpayable",
      "type": "function"
    },
    {
      "constant": true,
      "inputs": [
        {
          "name": "_container",
          "type": "bytes32"
        },
        {
          "name": "_key",
          "type": "bytes32"
        }
      ],
      "name": "getValue",
      "outputs": [
        {
          "name": "",
          "type": "uint256"
        }
      ],
      "payable": false,
      "stateMutability": "view",
      "type": "function"
    },
    {
      "constant": false,
      "inputs": [
        {
          "name": "_container",
          "type": "bytes32"
        },
        {
          "name": "_source",
          "type": "address"
        },
        {
          "name": "_key",
          "type": "address"
        },
        {
          "name": "_value",
          "type": "uint256"
        }
      ],
      "name": "setConstraint",
      "outputs": [],
      "payable": false,
      "stateMutability": "nonpayable",
      "type": "function"
    },
    {
      "constant": true,
      "inputs": [],
      "name": "owner",
      "outputs": [
        {
          "name": "",
          "type": "address"
        }
      ],
      "payable": false,
      "stateMutability": "view",
      "type": "function"
    },
    {
      "constant": true,
      "inputs": [
        {
          "name": "_container",
          "type": "bytes32"
        },
        {
          "name": "_key",
          "type": "bytes32"
        }
      ],
      "name": "getBool",
      "outputs": [
        {
          "name": "",
          "type": "bool"
        }
      ],
      "payable": false,
      "stateMutability": "view",
      "type": "function"
    },
    {
      "constant": false,
      "inputs": [
        {
          "name": "_container",
          "type": "bytes32"
        },
        {
          "name": "_key",
          "type": "address"
        },
        {
          "name": "_value",
          "type": "uint256"
        }
      ],
      "name": "setBalanace",
      "outputs": [],
      "payable": false,
      "stateMutability": "nonpayable",
      "type": "function"
    },
    {
      "constant": false,
      "inputs": [
        {
          "name": "_container",
          "type": "bytes32"
        },
        {
          "name": "_key",
          "type": "bytes32"
        },
        {
          "name": "_value",
          "type": "uint256"
        }
      ],
      "name": "setValue",
      "outputs": [],
      "payable": false,
      "stateMutability": "nonpayable",
      "type": "function"
    },
    {
      "constant": true,
      "inputs": [
        {
          "name": "_container",
          "type": "bytes32"
        },
        {
          "name": "_key",
          "type": "bytes32"
        }
      ],
      "name": "getAddress",
      "outputs": [
        {
          "name": "",
          "type": "address"
        }
      ],
      "payable": false,
      "stateMutability": "view",
      "type": "function"
    },
    {
      "constant": true,
      "inputs": [
        {
          "name": "_container",
          "type": "bytes32"
        },
        {
          "name": "_source",
          "type": "address"
        },
        {
          "name": "_key",
          "type": "address"
        }
      ],
      "name": "getConstraint",
      "outputs": [
        {
          "name": "",
          "type": "uint256"
        }
      ],
      "payable": false,
      "stateMutability": "view",
      "type": "function"
    },
    {
      "constant": false,
      "inputs": [
        {
          "name": "_container",
          "type": "bytes32"
        },
        {
          "name": "_key",
          "type": "bytes32"
        },
        {
          "name": "_value",
          "type": "bool"
        }
      ],
      "name": "setBool",
      "outputs": [],
      "payable": false,
      "stateMutability": "nonpayable",
      "type": "function"
    },
    {
      "constant": false,
      "inputs": [
        {
          "name": "newOwner",
          "type": "address"
        }
      ],
      "name": "transferOwnership",
      "outputs": [],
      "payable": false,
      "stateMutability": "nonpayable",
      "type": "function"
    },
    {
      "constant": true,
      "inputs": [
        {
          "name": "_container",
          "type": "bytes32"
        },
        {
          "name": "_key",
          "type": "address"
        }
      ],
      "name": "getBalanace",
      "outputs": [
        {
          "name": "",
          "type": "uint256"
        }
      ],
      "payable": false,
      "stateMutability": "view",
      "type": "function"
    },
    {
      "anonymous": false,
      "inputs": [
        {
          "indexed": true,
          "name": "previousOwner",
          "type": "address"
        },
        {
          "indexed": true,
          "name": "newOwner",
          "type": "address"
        }
      ],
      "name": "OwnershipTransferred",
      "type": "event"
    }
  ],
  "bytecode": "0x6060604052336000806101000a81548173ffffffffffffffffffffffffffffffffffffffff021916908373ffffffffffffffffffffffffffffffffffffffff160217905550610c36806100536000396000f3006060604052600436106100ba576000357c0100000000000000000000000000000000000000000000000000000000900463ffffffff16806379a7cfee146100bf5780637b01127c146101125780637dc4feb71461015a5780638da5cb5b146101c857806398eaf11c1461021d578063a309f2ee14610269578063a9d85266146102b8578063d3a39686146102f5578063eb8fb3ec14610369578063f0f53ee4146103e2578063f2fde38b14610421578063f4e76a461461045a575b600080fd5b34156100ca57600080fd5b6101106004808035600019169060200190919080356000191690602001909190803573ffffffffffffffffffffffffffffffffffffffff169060200190919050506104b4565b005b341561011d57600080fd5b6101446004808035600019169060200190919080356000191690602001909190505061058a565b6040518082815260200191505060405180910390f35b341561016557600080fd5b6101c660048080356000191690602001909190803573ffffffffffffffffffffffffffffffffffffffff1690602001909190803573ffffffffffffffffffffffffffffffffffffffff169060200190919080359060200190919050506105cc565b005b34156101d357600080fd5b6101db6106ca565b604051808273ffffffffffffffffffffffffffffffffffffffff1673ffffffffffffffffffffffffffffffffffffffff16815260200191505060405180910390f35b341561022857600080fd5b61024f600480803560001916906020019091908035600019169060200190919050506106ef565b604051808215151515815260200191505060405180910390f35b341561027457600080fd5b6102b660048080356000191690602001909190803573ffffffffffffffffffffffffffffffffffffffff1690602001909190803590602001909190505061073e565b005b34156102c357600080fd5b6102f3600480803560001916906020019091908035600019169060200190919080359060200190919050506107fe565b005b341561030057600080fd5b6103276004808035600019169060200190919080356000191690602001909190505061089a565b604051808273ffffffffffffffffffffffffffffffffffffffff1673ffffffffffffffffffffffffffffffffffffffff16815260200191505060405180910390f35b341561037457600080fd5b6103cc60048080356000191690602001909190803573ffffffffffffffffffffffffffffffffffffffff1690602001909190803573ffffffffffffffffffffffffffffffffffffffff169060200190919050506108fc565b6040518082815260200191505060405180910390f35b34156103ed57600080fd5b61041f6004808035600019169060200190919080356000191690602001909190803515159060200190919050506109a0565b005b341561042c57600080fd5b610458600480803573ffffffffffffffffffffffffffffffffffffffff16906020019091905050610a4f565b005b341561046557600080fd5b61049e60048080356000191690602001909190803573ffffffffffffffffffffffffffffffffffffffff16906020019091905050610ba4565b6040518082815260200191505060405180910390f35b6000809054906101000a900473ffffffffffffffffffffffffffffffffffffffff1673ffffffffffffffffffffffffffffffffffffffff163373ffffffffffffffffffffffffffffffffffffffff1614151561050f57600080fd5b806001600085600019166000191681526020019081526020016000206001016000846000191660001916815260200190815260200160002060006101000a81548173ffffffffffffffffffffffffffffffffffffffff021916908373ffffffffffffffffffffffffffffffffffffffff160217905550505050565b60006001600084600019166000191681526020019081526020016000206000016000836000191660001916815260200190815260200160002054905092915050565b6000809054906101000a900473ffffffffffffffffffffffffffffffffffffffff1673ffffffffffffffffffffffffffffffffffffffff163373ffffffffffffffffffffffffffffffffffffffff1614151561062757600080fd5b8060016000866000191660001916815260200190815260200160002060040160008573ffffffffffffffffffffffffffffffffffffffff1673ffffffffffffffffffffffffffffffffffffffff16815260200190815260200160002060008473ffffffffffffffffffffffffffffffffffffffff1673ffffffffffffffffffffffffffffffffffffffff1681526020019081526020016000208190555050505050565b6000809054906101000a900473ffffffffffffffffffffffffffffffffffffffff1681565b60006001600084600019166000191681526020019081526020016000206002016000836000191660001916815260200190815260200160002060009054906101000a900460ff16905092915050565b6000809054906101000a900473ffffffffffffffffffffffffffffffffffffffff1673ffffffffffffffffffffffffffffffffffffffff163373ffffffffffffffffffffffffffffffffffffffff1614151561079957600080fd5b8060016000856000191660001916815260200190815260200160002060030160008473ffffffffffffffffffffffffffffffffffffffff1673ffffffffffffffffffffffffffffffffffffffff16815260200190815260200160002081905550505050565b6000809054906101000a900473ffffffffffffffffffffffffffffffffffffffff1673ffffffffffffffffffffffffffffffffffffffff163373ffffffffffffffffffffffffffffffffffffffff1614151561085957600080fd5b806001600085600019166000191681526020019081526020016000206000016000846000191660001916815260200190815260200160002081905550505050565b60006001600084600019166000191681526020019081526020016000206001016000836000191660001916815260200190815260200160002060009054906101000a900473ffffffffffffffffffffffffffffffffffffffff16905092915050565b600060016000856000191660001916815260200190815260200160002060040160008473ffffffffffffffffffffffffffffffffffffffff1673ffffffffffffffffffffffffffffffffffffffff16815260200190815260200160002060008373ffffffffffffffffffffffffffffffffffffffff1673ffffffffffffffffffffffffffffffffffffffff1681526020019081526020016000205490509392505050565b6000809054906101000a900473ffffffffffffffffffffffffffffffffffffffff1673ffffffffffffffffffffffffffffffffffffffff163373ffffffffffffffffffffffffffffffffffffffff161415156109fb57600080fd5b806001600085600019166000191681526020019081526020016000206002016000846000191660001916815260200190815260200160002060006101000a81548160ff021916908315150217905550505050565b6000809054906101000a900473ffffffffffffffffffffffffffffffffffffffff1673ffffffffffffffffffffffffffffffffffffffff163373ffffffffffffffffffffffffffffffffffffffff16141515610aaa57600080fd5b600073ffffffffffffffffffffffffffffffffffffffff168173ffffffffffffffffffffffffffffffffffffffff1614151515610ae657600080fd5b8073ffffffffffffffffffffffffffffffffffffffff166000809054906101000a900473ffffffffffffffffffffffffffffffffffffffff1673ffffffffffffffffffffffffffffffffffffffff167f8be0079c531659141344cd1fd0a4f28419497f9722a3daafe3b4186f6b6457e060405160405180910390a3806000806101000a81548173ffffffffffffffffffffffffffffffffffffffff021916908373ffffffffffffffffffffffffffffffffffffffff16021790555050565b600060016000846000191660001916815260200190815260200160002060030160008373ffffffffffffffffffffffffffffffffffffffff1673ffffffffffffffffffffffffffffffffffffffff168152602001908152602001600020549050929150505600a165627a7a7230582056ee26c981d175dafcc95cbc25fa5ed867360619da29f3cd6fb74f39000226880029",
  "source": "pragma solidity ^0.4.18;\n\nimport \"../ownership/Ownable.sol\";\n\n\ncontract DataCentre is Ownable {\n    struct Container {\n        mapping(bytes32 => uint256) values;\n        mapping(bytes32 => address) addresses;\n        mapping(bytes32 => bool) switches;\n        mapping(address => uint256) balances;\n        mapping(address => mapping (address => uint)) constraints;\n    }\n\n    mapping(bytes32 => Container) containers;\n\n    // Owner Functions\n    function setValue(bytes32 _container, bytes32 _key, uint256 _value) public onlyOwner {\n        containers[_container].values[_key] = _value;\n    }\n\n    function setAddress(bytes32 _container, bytes32 _key, address _value) public onlyOwner {\n        containers[_container].addresses[_key] = _value;\n    }\n\n    function setBool(bytes32 _container, bytes32 _key, bool _value) public onlyOwner {\n        containers[_container].switches[_key] = _value;\n    }\n\n    function setBalanace(bytes32 _container, address _key, uint256 _value) public onlyOwner {\n        containers[_container].balances[_key] = _value;\n    }\n\n\n    function setConstraint(bytes32 _container, address _source, address _key, uint256 _value) public onlyOwner {\n        containers[_container].constraints[_source][_key] = _value;\n    }\n\n    // Constant Functions\n    function getValue(bytes32 _container, bytes32 _key) public constant returns(uint256) {\n        return containers[_container].values[_key];\n    }\n\n    function getAddress(bytes32 _container, bytes32 _key) public constant returns(address) {\n        return containers[_container].addresses[_key];\n    }\n\n    function getBool(bytes32 _container, bytes32 _key) public constant returns(bool) {\n        return containers[_container].switches[_key];\n    }\n\n    function getBalanace(bytes32 _container, address _key) public constant returns(uint256) {\n        return containers[_container].balances[_key];\n    }\n\n    function getConstraint(bytes32 _container, address _source, address _key) public constant returns(uint256) {\n        return containers[_container].constraints[_source][_key];\n    }\n}\n",
  "sourcePath": "/mnt/data/dev/TokenSaleContracts/contracts/token/DataCentre.sol",
  "compiler": {
    "name": "solc",
    "version": "0.4.18+commit.9cf6e910.Emscripten.clang"
  },
  "schemaVersion": "1.0.1",
  "updatedAt": "2018-02-16T17:58:36.485Z"
}