{
  "contractName": "DataManager",
  "abi": [
    {
      "constant": true,
      "inputs": [
        {
          "name": "",
          "type": "uint256"
        }
      ],
      "name": "admins",
      "outputs": [
        {
          "name": "",
          "type": "address"
        }
      ],
      "payable": false,
      "stateMutability": "view",
      "type": "function"
    },
    {
      "constant": false,
      "inputs": [
        {
          "name": "_admin",
          "type": "address"
        }
      ],
      "name": "removeAdmin",
      "outputs": [],
      "payable": false,
      "stateMutability": "nonpayable",
      "type": "function"
    },
    {
      "constant": true,
      "inputs": [],
      "name": "totalSupply",
      "outputs": [
        {
          "name": "",
          "type": "uint256"
        }
      ],
      "payable": false,
      "stateMutability": "view",
      "type": "function"
    },
    {
      "constant": true,
      "inputs": [],
      "name": "dataCentreAddr",
      "outputs": [
        {
          "name": "",
          "type": "address"
        }
      ],
      "payable": false,
      "stateMutability": "view",
      "type": "function"
    },
    {
      "constant": false,
      "inputs": [],
      "name": "unpause",
      "outputs": [],
      "payable": false,
      "stateMutability": "nonpayable",
      "type": "function"
    },
    {
      "constant": true,
      "inputs": [],
      "name": "paused",
      "outputs": [
        {
          "name": "",
          "type": "bool"
        }
      ],
      "payable": false,
      "stateMutability": "view",
      "type": "function"
    },
    {
      "constant": false,
      "inputs": [
        {
          "name": "_admin",
          "type": "address"
        }
      ],
      "name": "addAdmin",
      "outputs": [],
      "payable": false,
      "stateMutability": "nonpayable",
      "type": "function"
    },
    {
      "constant": true,
      "inputs": [
        {
          "name": "_owner",
          "type": "address"
        }
      ],
      "name": "balanceOf",
      "outputs": [
        {
          "name": "",
          "type": "uint256"
        }
      ],
      "payable": false,
      "stateMutability": "view",
      "type": "function"
    },
    {
      "constant": false,
      "inputs": [],
      "name": "pause",
      "outputs": [],
      "payable": false,
      "stateMutability": "nonpayable",
      "type": "function"
    },
    {
      "constant": true,
      "inputs": [
        {
          "name": "_owner",
          "type": "address"
        },
        {
          "name": "_spender",
          "type": "address"
        }
      ],
      "name": "allowance",
      "outputs": [
        {
          "name": "",
          "type": "uint256"
        }
      ],
      "payable": false,
      "stateMutability": "view",
      "type": "function"
    },
    {
      "inputs": [
        {
          "name": "_dataCentreAddr",
          "type": "address"
        }
      ],
      "payable": false,
      "stateMutability": "nonpayable",
      "type": "constructor"
    },
    {
      "anonymous": false,
      "inputs": [],
      "name": "Pause",
      "type": "event"
    },
    {
      "anonymous": false,
      "inputs": [],
      "name": "Unpause",
      "type": "event"
    }
  ],
  "bytecode": "0x606060405260018060006101000a81548160ff021916908315150217905550341561002957600080fd5b604051602080610c6383398101604052808051906020019091905050600160008161005491906100f4565b503360008081548110151561006557fe5b906000526020600020900160006101000a81548173ffffffffffffffffffffffffffffffffffffffff021916908373ffffffffffffffffffffffffffffffffffffffff160217905550806001806101000a81548173ffffffffffffffffffffffffffffffffffffffff021916908373ffffffffffffffffffffffffffffffffffffffff16021790555050610145565b81548183558181151161011b5781836000526020600020918201910161011a9190610120565b5b505050565b61014291905b8082111561013e576000816000905550600101610126565b5090565b90565b610b0f806101546000396000f3006060604052600436106100a4576000357c0100000000000000000000000000000000000000000000000000000000900463ffffffff16806314bfd6d0146100a95780631785f53c1461010c57806318160ddd146101455780632533bb9d1461016e5780633f4ba83a146101c35780635c975abb146101d8578063704802751461020557806370a082311461023e5780638456cb591461028b578063dd62ed3e146102a0575b600080fd5b34156100b457600080fd5b6100ca600480803590602001909190505061030c565b604051808273ffffffffffffffffffffffffffffffffffffffff1673ffffffffffffffffffffffffffffffffffffffff16815260200191505060405180910390f35b341561011757600080fd5b610143600480803573ffffffffffffffffffffffffffffffffffffffff1690602001909190505061034b565b005b341561015057600080fd5b610158610463565b6040518082815260200191505060405180910390f35b341561017957600080fd5b610181610565565b604051808273ffffffffffffffffffffffffffffffffffffffff1673ffffffffffffffffffffffffffffffffffffffff16815260200191505060405180910390f35b34156101ce57600080fd5b6101d661058a565b005b34156101e357600080fd5b6101eb610629565b604051808215151515815260200191505060405180910390f35b341561021057600080fd5b61023c600480803573ffffffffffffffffffffffffffffffffffffffff1690602001909190505061063c565b005b341561024957600080fd5b610275600480803573ffffffffffffffffffffffffffffffffffffffff169060200190919050506106fb565b6040518082815260200191505060405180910390f35b341561029657600080fd5b61029e61080b565b005b34156102ab57600080fd5b6102f6600480803573ffffffffffffffffffffffffffffffffffffffff1690602001909190803573ffffffffffffffffffffffffffffffffffffffff169060200190919050506108aa565b6040518082815260200191505060405180910390f35b60008181548110151561031b57fe5b90600052602060002090016000915054906101000a900473ffffffffffffffffffffffffffffffffffffffff1681565b6000806000610359336109ef565b5090506001151581151514151561036f57600080fd5b610378846109ef565b9250925082151561038857600080fd5b6000805490508210151561039b57600080fd5b6001600080549050038210156104475760006001600080549050038154811015156103c257fe5b906000526020600020900160009054906101000a900473ffffffffffffffffffffffffffffffffffffffff166000838154811015156103fd57fe5b906000526020600020900160006101000a81548173ffffffffffffffffffffffffffffffffffffffff021916908373ffffffffffffffffffffffffffffffffffffffff1602179055505b600080548091906001900361045c9190610a92565b5050505050565b60006001809054906101000a900473ffffffffffffffffffffffffffffffffffffffff1673ffffffffffffffffffffffffffffffffffffffff16637b01127c6000604051602001526040518163ffffffff167c010000000000000000000000000000000000000000000000000000000002815260040180807f5452490000000000000000000000000000000000000000000000000000000000815250602001807f746f74616c537570706c790000000000000000000000000000000000000000008152506020019050602060405180830381600087803b151561054557600080fd5b6102c65a03f1151561055657600080fd5b50505060405180519050905090565b6001809054906101000a900473ffffffffffffffffffffffffffffffffffffffff1681565b6000610595336109ef565b509050600115158115151415156105ab57600080fd5b3360006105b7826109ef565b509050600160009054906101000a900460ff16806105d25750805b15156105dd57600080fd5b6000600160006101000a81548160ff0219169083151502179055507f7805862f689e2f13df9f062ff482ad3ad112aca9e0847911ed832e158c525b3360405160405180910390a1505050565b600160009054906101000a900460ff1681565b600080610648336109ef565b5090506001151581151514151561065e57600080fd5b610667836109ef565b5091508115151561067757600080fd5b600a60008054905010151561068b57600080fd5b8260008080548091906001016106a19190610a92565b8154811015156106ad57fe5b906000526020600020900160006101000a81548173ffffffffffffffffffffffffffffffffffffffff021916908373ffffffffffffffffffffffffffffffffffffffff160217905550505050565b60006001809054906101000a900473ffffffffffffffffffffffffffffffffffffffff1673ffffffffffffffffffffffffffffffffffffffff1663f4e76a46836000604051602001526040518263ffffffff167c010000000000000000000000000000000000000000000000000000000002815260040180807f54524900000000000000000000000000000000000000000000000000000000008152506020018273ffffffffffffffffffffffffffffffffffffffff1673ffffffffffffffffffffffffffffffffffffffff168152602001915050602060405180830381600087803b15156107e957600080fd5b6102c65a03f115156107fa57600080fd5b505050604051805190509050919050565b6000610816336109ef565b5090506001151581151514151561082c57600080fd5b336000610838826109ef565b509050600160009054906101000a900460ff1615806108545750805b151561085f57600080fd5b60018060006101000a81548160ff0219169083151502179055507f6985a02210a168e66602d3235cb6db0e70f92b3ba4d376a33c0f3d9434bff62560405160405180910390a1505050565b60006001809054906101000a900473ffffffffffffffffffffffffffffffffffffffff1673ffffffffffffffffffffffffffffffffffffffff1663eb8fb3ec84846000604051602001526040518363ffffffff167c010000000000000000000000000000000000000000000000000000000002815260040180807f54524900000000000000000000000000000000000000000000000000000000008152506020018373ffffffffffffffffffffffffffffffffffffffff1673ffffffffffffffffffffffffffffffffffffffff1681526020018273ffffffffffffffffffffffffffffffffffffffff1673ffffffffffffffffffffffffffffffffffffffff16815260200192505050602060405180830381600087803b15156109cc57600080fd5b6102c65a03f115156109dd57600080fd5b50505060405180519050905092915050565b6000806000809250600090505b600080549050811015610a8c57600081815481101515610a1857fe5b906000526020600020900160009054906101000a900473ffffffffffffffffffffffffffffffffffffffff1673ffffffffffffffffffffffffffffffffffffffff168473ffffffffffffffffffffffffffffffffffffffff161415610a7f57600192508091505b80806001019150506109fc565b50915091565b815481835581811511610ab957818360005260206000209182019101610ab89190610abe565b5b505050565b610ae091905b80821115610adc576000816000905550600101610ac4565b5090565b905600a165627a7a72305820b5f11969f3eb6b0d915b5fe7bbace8111f8226c52d457530d332c7bd9780e5d00029",
  "source": "pragma solidity ^0.4.18;\n\nimport '../token/DataCentre.sol';\nimport '../Pausable.sol';\n\n\ncontract DataManager is Pausable {\n\n    // satelite contract addresses\n    address public dataCentreAddr;\n\n    function DataManager(address _dataCentreAddr) {\n        dataCentreAddr = _dataCentreAddr;\n    }\n\n    // Constant Functions\n    function balanceOf(address _owner) public constant returns (uint256) {\n        return DataCentre(dataCentreAddr).getBalanace(\"TRI\", _owner);\n    }\n\n    function totalSupply() public constant returns (uint256) {\n        return DataCentre(dataCentreAddr).getValue(\"TRI\", \"totalSupply\");\n    }\n\n    function allowance(address _owner, address _spender) public constant returns (uint256) {\n        return DataCentre(dataCentreAddr).getConstraint(\"TRI\", _owner, _spender);\n    }\n\n    function _setTotalSupply(uint256 _newTotalSupply) internal {\n        DataCentre(dataCentreAddr).setValue(\"TRI\", \"totalSupply\", _newTotalSupply);\n    }\n\n    function _setBalanceOf(address _owner, uint256 _newValue) internal {\n        DataCentre(dataCentreAddr).setBalanace(\"TRI\", _owner, _newValue);\n    }\n\n    function _setAllowance(address _owner, address _spender, uint256 _newValue) internal {\n        require(balanceOf(_owner) >= _newValue);\n        DataCentre(dataCentreAddr).setConstraint(\"TRI\", _owner, _spender, _newValue);\n    }\n\n}\n",
  "sourcePath": "/mnt/data/dev/TokenSaleContracts/contracts/controller/DataManager.sol",
  "compiler": {
    "name": "solc",
    "version": "0.4.18+commit.9cf6e910.Emscripten.clang"
  },
  "schemaVersion": "1.0.1",
  "updatedAt": "2018-02-16T17:37:23.003Z"
}