{
  "contractName": "Governable",
  "abi": [
    {
      "constant": true,
      "inputs": [
        {
          "name": "",
          "type": "uint256"
        }
      ],
      "name": "admins",
      "outputs": [
        {
          "name": "",
          "type": "address"
        }
      ],
      "payable": false,
      "stateMutability": "view",
      "type": "function"
    },
    {
      "constant": false,
      "inputs": [
        {
          "name": "_admin",
          "type": "address"
        }
      ],
      "name": "removeAdmin",
      "outputs": [],
      "payable": false,
      "stateMutability": "nonpayable",
      "type": "function"
    },
    {
      "constant": false,
      "inputs": [
        {
          "name": "_admin",
          "type": "address"
        }
      ],
      "name": "addAdmin",
      "outputs": [],
      "payable": false,
      "stateMutability": "nonpayable",
      "type": "function"
    },
    {
      "inputs": [],
      "payable": false,
      "stateMutability": "nonpayable",
      "type": "constructor"
    }
  ],
  "bytecode": "0x6060604052341561000f57600080fd5b600160008161001e919061007d565b503360008081548110151561002f57fe5b906000526020600020900160006101000a81548173ffffffffffffffffffffffffffffffffffffffff021916908373ffffffffffffffffffffffffffffffffffffffff1602179055506100ce565b8154818355818115116100a4578183600052602060002091820191016100a391906100a9565b5b505050565b6100cb91905b808211156100c75760008160009055506001016100af565b5090565b90565b610467806100dd6000396000f300606060405260043610610057576000357c0100000000000000000000000000000000000000000000000000000000900463ffffffff16806314bfd6d01461005c5780631785f53c146100bf57806370480275146100f8575b600080fd5b341561006757600080fd5b61007d6004808035906020019091905050610131565b604051808273ffffffffffffffffffffffffffffffffffffffff1673ffffffffffffffffffffffffffffffffffffffff16815260200191505060405180910390f35b34156100ca57600080fd5b6100f6600480803573ffffffffffffffffffffffffffffffffffffffff16906020019091905050610170565b005b341561010357600080fd5b61012f600480803573ffffffffffffffffffffffffffffffffffffffff16906020019091905050610288565b005b60008181548110151561014057fe5b90600052602060002090016000915054906101000a900473ffffffffffffffffffffffffffffffffffffffff1681565b600080600061017e33610347565b5090506001151581151514151561019457600080fd5b61019d84610347565b925092508215156101ad57600080fd5b600080549050821015156101c057600080fd5b60016000805490500382101561026c5760006001600080549050038154811015156101e757fe5b906000526020600020900160009054906101000a900473ffffffffffffffffffffffffffffffffffffffff1660008381548110151561022257fe5b906000526020600020900160006101000a81548173ffffffffffffffffffffffffffffffffffffffff021916908373ffffffffffffffffffffffffffffffffffffffff1602179055505b600080548091906001900361028191906103ea565b5050505050565b60008061029433610347565b509050600115158115151415156102aa57600080fd5b6102b383610347565b509150811515156102c357600080fd5b600a6000805490501015156102d757600080fd5b8260008080548091906001016102ed91906103ea565b8154811015156102f957fe5b906000526020600020900160006101000a81548173ffffffffffffffffffffffffffffffffffffffff021916908373ffffffffffffffffffffffffffffffffffffffff160217905550505050565b6000806000809250600090505b6000805490508110156103e45760008181548110151561037057fe5b906000526020600020900160009054906101000a900473ffffffffffffffffffffffffffffffffffffffff1673ffffffffffffffffffffffffffffffffffffffff168473ffffffffffffffffffffffffffffffffffffffff1614156103d757600192508091505b8080600101915050610354565b50915091565b815481835581811511610411578183600052602060002091820191016104109190610416565b5b505050565b61043891905b8082111561043457600081600090555060010161041c565b5090565b905600a165627a7a723058206dc186d2f689f689a04471793c86d7ffd0708b6ef29b09f11650eb0b8fe2aecd0029",
  "source": "pragma solidity ^0.4.18;\n\n\ncontract Governable {\n\n    // list of admins, council at first spot\n    address[] public admins;\n\n    modifier onlyAdmins() {\n        var(adminStatus, ) = isAdmin(msg.sender);\n        require(adminStatus == true);\n        _;\n    }\n\n    function Governable() public {\n        admins.length = 1;\n        admins[0] = msg.sender;\n    }\n\n    function addAdmin(address _admin) public onlyAdmins {\n        var(adminStatus, ) = isAdmin(_admin);\n        require(!adminStatus);\n        require(admins.length < 10);\n        admins[admins.length++] = _admin;\n    }\n\n    function removeAdmin(address _admin) public onlyAdmins {\n        var(adminStatus, pos) = isAdmin(_admin);\n        require(adminStatus);\n        require(pos < admins.length);\n        // if not last element, switch with last\n        if (pos < admins.length - 1) {\n            admins[pos] = admins[admins.length - 1];\n        }\n        // then cut off the tail\n        admins.length--;\n    }\n\n    function isAdmin(address _addr) internal returns (bool isAdmin, uint256 pos) {\n        isAdmin = false;\n        for (uint256 i = 0; i < admins.length; i++) {\n            if (_addr == admins[i]) {\n            isAdmin = true;\n            pos = i;\n            }\n        }\n    }\n}\n",
  "sourcePath": "/mnt/data/dev/TokenSaleContracts/contracts/ownership/Governable.sol",
  "compiler": {
    "name": "solc",
    "version": "0.4.18+commit.9cf6e910.Emscripten.clang"
  },
  "schemaVersion": "1.0.1",
  "updatedAt": "2018-02-16T17:37:23.008Z"
}