{
  "contractName": "Pausable",
  "abi": [
    {
      "constant": true,
      "inputs": [
        {
          "name": "",
          "type": "uint256"
        }
      ],
      "name": "admins",
      "outputs": [
        {
          "name": "",
          "type": "address"
        }
      ],
      "payable": false,
      "stateMutability": "view",
      "type": "function"
    },
    {
      "constant": false,
      "inputs": [
        {
          "name": "_admin",
          "type": "address"
        }
      ],
      "name": "removeAdmin",
      "outputs": [],
      "payable": false,
      "stateMutability": "nonpayable",
      "type": "function"
    },
    {
      "constant": false,
      "inputs": [],
      "name": "unpause",
      "outputs": [],
      "payable": false,
      "stateMutability": "nonpayable",
      "type": "function"
    },
    {
      "constant": true,
      "inputs": [],
      "name": "paused",
      "outputs": [
        {
          "name": "",
          "type": "bool"
        }
      ],
      "payable": false,
      "stateMutability": "view",
      "type": "function"
    },
    {
      "constant": false,
      "inputs": [
        {
          "name": "_admin",
          "type": "address"
        }
      ],
      "name": "addAdmin",
      "outputs": [],
      "payable": false,
      "stateMutability": "nonpayable",
      "type": "function"
    },
    {
      "constant": false,
      "inputs": [],
      "name": "pause",
      "outputs": [],
      "payable": false,
      "stateMutability": "nonpayable",
      "type": "function"
    },
    {
      "anonymous": false,
      "inputs": [],
      "name": "Pause",
      "type": "event"
    },
    {
      "anonymous": false,
      "inputs": [],
      "name": "Unpause",
      "type": "event"
    }
  ],
  "bytecode": "0x606060405260018060006101000a81548160ff021916908315150217905550600160008161002d919061008c565b503360008081548110151561003e57fe5b906000526020600020900160006101000a81548173ffffffffffffffffffffffffffffffffffffffff021916908373ffffffffffffffffffffffffffffffffffffffff1602179055506100dd565b8154818355818115116100b3578183600052602060002091820191016100b291906100b8565b5b505050565b6100da91905b808211156100d65760008160009055506001016100be565b5090565b90565b610630806100ec6000396000f300606060405260043610610078576000357c0100000000000000000000000000000000000000000000000000000000900463ffffffff16806314bfd6d01461007d5780631785f53c146100e05780633f4ba83a146101195780635c975abb1461012e578063704802751461015b5780638456cb5914610194575b600080fd5b341561008857600080fd5b61009e60048080359060200190919050506101a9565b604051808273ffffffffffffffffffffffffffffffffffffffff1673ffffffffffffffffffffffffffffffffffffffff16815260200191505060405180910390f35b34156100eb57600080fd5b610117600480803573ffffffffffffffffffffffffffffffffffffffff169060200190919050506101e8565b005b341561012457600080fd5b61012c610300565b005b341561013957600080fd5b61014161039f565b604051808215151515815260200191505060405180910390f35b341561016657600080fd5b610192600480803573ffffffffffffffffffffffffffffffffffffffff169060200190919050506103b2565b005b341561019f57600080fd5b6101a7610471565b005b6000818154811015156101b857fe5b90600052602060002090016000915054906101000a900473ffffffffffffffffffffffffffffffffffffffff1681565b60008060006101f633610510565b5090506001151581151514151561020c57600080fd5b61021584610510565b9250925082151561022557600080fd5b6000805490508210151561023857600080fd5b6001600080549050038210156102e457600060016000805490500381548110151561025f57fe5b906000526020600020900160009054906101000a900473ffffffffffffffffffffffffffffffffffffffff1660008381548110151561029a57fe5b906000526020600020900160006101000a81548173ffffffffffffffffffffffffffffffffffffffff021916908373ffffffffffffffffffffffffffffffffffffffff1602179055505b60008054809190600190036102f991906105b3565b5050505050565b600061030b33610510565b5090506001151581151514151561032157600080fd5b33600061032d82610510565b509050600160009054906101000a900460ff16806103485750805b151561035357600080fd5b6000600160006101000a81548160ff0219169083151502179055507f7805862f689e2f13df9f062ff482ad3ad112aca9e0847911ed832e158c525b3360405160405180910390a1505050565b600160009054906101000a900460ff1681565b6000806103be33610510565b509050600115158115151415156103d457600080fd5b6103dd83610510565b509150811515156103ed57600080fd5b600a60008054905010151561040157600080fd5b82600080805480919060010161041791906105b3565b81548110151561042357fe5b906000526020600020900160006101000a81548173ffffffffffffffffffffffffffffffffffffffff021916908373ffffffffffffffffffffffffffffffffffffffff160217905550505050565b600061047c33610510565b5090506001151581151514151561049257600080fd5b33600061049e82610510565b509050600160009054906101000a900460ff1615806104ba5750805b15156104c557600080fd5b60018060006101000a81548160ff0219169083151502179055507f6985a02210a168e66602d3235cb6db0e70f92b3ba4d376a33c0f3d9434bff62560405160405180910390a1505050565b6000806000809250600090505b6000805490508110156105ad5760008181548110151561053957fe5b906000526020600020900160009054906101000a900473ffffffffffffffffffffffffffffffffffffffff1673ffffffffffffffffffffffffffffffffffffffff168473ffffffffffffffffffffffffffffffffffffffff1614156105a057600192508091505b808060010191505061051d565b50915091565b8154818355818115116105da578183600052602060002091820191016105d991906105df565b5b505050565b61060191905b808211156105fd5760008160009055506001016105e5565b5090565b905600a165627a7a723058200c0f45d77d1bcb58632a0373928e95397be02350645c022aff338c3d74d8373a0029",
  "source": "pragma solidity ^0.4.18;\n\nimport \"./ownership/Governable.sol\";\n\n\n/**\n * @title Pausable\n * @dev Base contract which allows children to implement an emergency stop mechanism.\n */\ncontract Pausable is Governable {\n    event Pause();\n    event Unpause();\n\n    bool public paused = true;\n\n    /**\n    * @dev Modifier to make a function callable only when the contract is not paused.\n    */\n    modifier whenNotPaused(address _to) {\n        var(adminStatus, ) = isAdmin(_to);\n        require(!paused || adminStatus);\n        _;\n    }\n\n    /**\n    * @dev Modifier to make a function callable only when the contract is paused.\n    */\n    modifier whenPaused(address _to) {\n        var(adminStatus, ) = isAdmin(_to);\n        require(paused || adminStatus);\n        _;\n    }\n\n    /**\n    * @dev called by the owner to pause, triggers stopped state\n    */\n    function pause() onlyAdmins whenNotPaused(msg.sender) public {\n        paused = true;\n        Pause();\n    }\n\n    /**\n    * @dev called by the owner to unpause, returns to normal state\n    */\n    function unpause() onlyAdmins whenPaused(msg.sender) public {\n        paused = false;\n        Unpause();\n    }\n}\n",
  "sourcePath": "/mnt/data/dev/TokenSaleContracts/contracts/Pausable.sol",
  "compiler": {
    "name": "solc",
    "version": "0.4.18+commit.9cf6e910.Emscripten.clang"
  },
  "schemaVersion": "1.0.1",
  "updatedAt": "2018-02-16T17:37:23.001Z"
}