{
  "contractName": "RefundVault",
  "abi": [
    {
      "constant": false,
      "inputs": [],
      "name": "close",
      "outputs": [],
      "payable": false,
      "stateMutability": "nonpayable",
      "type": "function"
    },
    {
      "constant": true,
      "inputs": [],
      "name": "wallet",
      "outputs": [
        {
          "name": "",
          "type": "address"
        }
      ],
      "payable": false,
      "stateMutability": "view",
      "type": "function"
    },
    {
      "constant": false,
      "inputs": [],
      "name": "enableRefunds",
      "outputs": [],
      "payable": false,
      "stateMutability": "nonpayable",
      "type": "function"
    },
    {
      "constant": true,
      "inputs": [],
      "name": "owner",
      "outputs": [
        {
          "name": "",
          "type": "address"
        }
      ],
      "payable": false,
      "stateMutability": "view",
      "type": "function"
    },
    {
      "constant": true,
      "inputs": [],
      "name": "state",
      "outputs": [
        {
          "name": "",
          "type": "uint8"
        }
      ],
      "payable": false,
      "stateMutability": "view",
      "type": "function"
    },
    {
      "constant": true,
      "inputs": [
        {
          "name": "",
          "type": "address"
        }
      ],
      "name": "deposited",
      "outputs": [
        {
          "name": "",
          "type": "uint256"
        }
      ],
      "payable": false,
      "stateMutability": "view",
      "type": "function"
    },
    {
      "constant": false,
      "inputs": [
        {
          "name": "beneficiary",
          "type": "address"
        }
      ],
      "name": "kill",
      "outputs": [],
      "payable": false,
      "stateMutability": "nonpayable",
      "type": "function"
    },
    {
      "constant": false,
      "inputs": [
        {
          "name": "newOwner",
          "type": "address"
        }
      ],
      "name": "transferOwnership",
      "outputs": [],
      "payable": false,
      "stateMutability": "nonpayable",
      "type": "function"
    },
    {
      "constant": false,
      "inputs": [
        {
          "name": "investor",
          "type": "address"
        }
      ],
      "name": "deposit",
      "outputs": [],
      "payable": true,
      "stateMutability": "payable",
      "type": "function"
    },
    {
      "constant": false,
      "inputs": [
        {
          "name": "investor",
          "type": "address"
        }
      ],
      "name": "refund",
      "outputs": [],
      "payable": false,
      "stateMutability": "nonpayable",
      "type": "function"
    },
    {
      "inputs": [
        {
          "name": "_wallet",
          "type": "address"
        }
      ],
      "payable": false,
      "stateMutability": "nonpayable",
      "type": "constructor"
    },
    {
      "anonymous": false,
      "inputs": [],
      "name": "Closed",
      "type": "event"
    },
    {
      "anonymous": false,
      "inputs": [],
      "name": "RefundsEnabled",
      "type": "event"
    },
    {
      "anonymous": false,
      "inputs": [
        {
          "indexed": true,
          "name": "beneficiary",
          "type": "address"
        },
        {
          "indexed": false,
          "name": "weiAmount",
          "type": "uint256"
        }
      ],
      "name": "Refunded",
      "type": "event"
    },
    {
      "anonymous": false,
      "inputs": [
        {
          "indexed": false,
          "name": "_investor",
          "type": "address"
        },
        {
          "indexed": false,
          "name": "_value",
          "type": "uint256"
        }
      ],
      "name": "Deposit",
      "type": "event"
    },
    {
      "anonymous": false,
      "inputs": [
        {
          "indexed": true,
          "name": "previousOwner",
          "type": "address"
        },
        {
          "indexed": true,
          "name": "newOwner",
          "type": "address"
        }
      ],
      "name": "OwnershipTransferred",
      "type": "event"
    }
  ],
  "bytecode": "0x6060604052341561000f57600080fd5b604051602080610b9883398101604052808051906020019091905050336000806101000a81548173ffffffffffffffffffffffffffffffffffffffff021916908373ffffffffffffffffffffffffffffffffffffffff160217905550600073ffffffffffffffffffffffffffffffffffffffff168173ffffffffffffffffffffffffffffffffffffffff16141515156100a757600080fd5b80600260006101000a81548173ffffffffffffffffffffffffffffffffffffffff021916908373ffffffffffffffffffffffffffffffffffffffff1602179055506000600260146101000a81548160ff0219169083600281111561010757fe5b021790555050610a7c8061011c6000396000f3006060604052600436106100a4576000357c0100000000000000000000000000000000000000000000000000000000900463ffffffff16806343d726d6146100a9578063521eb273146100be5780638c52dc41146101135780638da5cb5b14610128578063c19d93fb1461017d578063cb13cddb146101b4578063cbf0b0c014610201578063f2fde38b1461023a578063f340fa0114610273578063fa89401a146102a1575b600080fd5b34156100b457600080fd5b6100bc6102da565b005b34156100c957600080fd5b6100d161042e565b604051808273ffffffffffffffffffffffffffffffffffffffff1673ffffffffffffffffffffffffffffffffffffffff16815260200191505060405180910390f35b341561011e57600080fd5b610126610454565b005b341561013357600080fd5b61013b610535565b604051808273ffffffffffffffffffffffffffffffffffffffff1673ffffffffffffffffffffffffffffffffffffffff16815260200191505060405180910390f35b341561018857600080fd5b61019061055a565b604051808260028111156101a057fe5b60ff16815260200191505060405180910390f35b34156101bf57600080fd5b6101eb600480803573ffffffffffffffffffffffffffffffffffffffff1690602001909190505061056d565b6040518082815260200191505060405180910390f35b341561020c57600080fd5b610238600480803573ffffffffffffffffffffffffffffffffffffffff16906020019091905050610585565b005b341561024557600080fd5b610271600480803573ffffffffffffffffffffffffffffffffffffffff169060200190919050506105f9565b005b61029f600480803573ffffffffffffffffffffffffffffffffffffffff1690602001909190505061074e565b005b34156102ac57600080fd5b6102d8600480803573ffffffffffffffffffffffffffffffffffffffff169060200190919050506108e0565b005b6000809054906101000a900473ffffffffffffffffffffffffffffffffffffffff1673ffffffffffffffffffffffffffffffffffffffff163373ffffffffffffffffffffffffffffffffffffffff1614151561033557600080fd5b6000600281111561034257fe5b600260149054906101000a900460ff16600281111561035d57fe5b14151561036957600080fd5b60028060146101000a81548160ff0219169083600281111561038757fe5b02179055507f1cdde67b72a90f19919ac732a437ac2f7a10fc128d28c2a6e525d89ce5cd9d3a60405160405180910390a1600260009054906101000a900473ffffffffffffffffffffffffffffffffffffffff1673ffffffffffffffffffffffffffffffffffffffff166107d03073ffffffffffffffffffffffffffffffffffffffff1631604051600060405180830381858888f19350505050151561042c57600080fd5b565b600260009054906101000a900473ffffffffffffffffffffffffffffffffffffffff1681565b6000809054906101000a900473ffffffffffffffffffffffffffffffffffffffff1673ffffffffffffffffffffffffffffffffffffffff163373ffffffffffffffffffffffffffffffffffffffff161415156104af57600080fd5b600060028111156104bc57fe5b600260149054906101000a900460ff1660028111156104d757fe5b1415156104e357600080fd5b6001600260146101000a81548160ff0219169083600281111561050257fe5b02179055507f599d8e5a83cffb867d051598c4d70e805d59802d8081c1c7d6dffc5b6aca2b8960405160405180910390a1565b6000809054906101000a900473ffffffffffffffffffffffffffffffffffffffff1681565b600260149054906101000a900460ff1681565b60016020528060005260406000206000915090505481565b6000809054906101000a900473ffffffffffffffffffffffffffffffffffffffff1673ffffffffffffffffffffffffffffffffffffffff163373ffffffffffffffffffffffffffffffffffffffff161415156105e057600080fd5b8073ffffffffffffffffffffffffffffffffffffffff16ff5b6000809054906101000a900473ffffffffffffffffffffffffffffffffffffffff1673ffffffffffffffffffffffffffffffffffffffff163373ffffffffffffffffffffffffffffffffffffffff1614151561065457600080fd5b600073ffffffffffffffffffffffffffffffffffffffff168173ffffffffffffffffffffffffffffffffffffffff161415151561069057600080fd5b8073ffffffffffffffffffffffffffffffffffffffff166000809054906101000a900473ffffffffffffffffffffffffffffffffffffffff1673ffffffffffffffffffffffffffffffffffffffff167f8be0079c531659141344cd1fd0a4f28419497f9722a3daafe3b4186f6b6457e060405160405180910390a3806000806101000a81548173ffffffffffffffffffffffffffffffffffffffff021916908373ffffffffffffffffffffffffffffffffffffffff16021790555050565b6000809054906101000a900473ffffffffffffffffffffffffffffffffffffffff1673ffffffffffffffffffffffffffffffffffffffff163373ffffffffffffffffffffffffffffffffffffffff161415156107a957600080fd5b600060028111156107b657fe5b600260149054906101000a900460ff1660028111156107d157fe5b1415156107dd57600080fd5b61082f34600160008473ffffffffffffffffffffffffffffffffffffffff1673ffffffffffffffffffffffffffffffffffffffff16815260200190815260200160002054610a2f90919063ffffffff16565b600160008373ffffffffffffffffffffffffffffffffffffffff1673ffffffffffffffffffffffffffffffffffffffff168152602001908152602001600020819055507fe1fffcc4923d04b559f4d29a8bfc6cda04eb5b0d3c460751c2402c5c5cc9109c8134604051808373ffffffffffffffffffffffffffffffffffffffff1673ffffffffffffffffffffffffffffffffffffffff1681526020018281526020019250505060405180910390a150565b6000600160028111156108ef57fe5b600260149054906101000a900460ff16600281111561090a57fe5b14151561091657600080fd5b600160008373ffffffffffffffffffffffffffffffffffffffff1673ffffffffffffffffffffffffffffffffffffffff1681526020019081526020016000205490506000600160008473ffffffffffffffffffffffffffffffffffffffff1673ffffffffffffffffffffffffffffffffffffffff168152602001908152602001600020819055508173ffffffffffffffffffffffffffffffffffffffff166108fc829081150290604051600060405180830381858888f1935050505015156109dd57600080fd5b8173ffffffffffffffffffffffffffffffffffffffff167fd7dee2702d63ad89917b6a4da9981c90c4d24f8c2bdfd64c604ecae57d8d0651826040518082815260200191505060405180910390a25050565b6000808284019050838110151515610a4657600080fd5b80915050929150505600a165627a7a72305820e5904d84fd21973f0b7b17612c97e2d65a398b8ad2b671a24bf7c23fca9184400029",
  "source": "pragma solidity ^0.4.18;\n\nimport '../SafeMath.sol';\nimport '../ownership/Ownable.sol';\n\n/**\n * @title RefundVault\n * @dev This contract is used for storing funds while a crowdsale\n * is in progress. Supports refunding the money if crowdsale fails,\n * and forwarding it if crowdsale is successful.\n */\n\n\ncontract RefundVault is Ownable {\n    using SafeMath for uint256;\n\n    enum State { Active, Refunding, Closed }\n\n    mapping (address => uint256) public deposited;\n    address public wallet;\n    State public state;\n\n    event Closed();\n    event RefundsEnabled();\n    event Refunded(address indexed beneficiary, uint256 weiAmount);\n\n    function RefundVault(address _wallet) public {\n        require(_wallet != address(0));\n        wallet = _wallet;\n        state = State.Active;\n    }\n\n    event Deposit(address _investor, uint _value);\n    function deposit(address investor) onlyOwner public payable {\n        require(state == State.Active);\n        deposited[investor] = deposited[investor].add(msg.value);\n        Deposit(investor, msg.value);\n    }\n\n    function close() onlyOwner public {\n        require(state == State.Active);\n        state = State.Closed;\n        Closed();\n        require(wallet.call.gas(2000).value(this.balance)());\n    }\n\n    function enableRefunds() onlyOwner public {\n        require(state == State.Active);\n        state = State.Refunding;\n        RefundsEnabled();\n    }\n\n    function refund(address investor) public {\n        require(state == State.Refunding);\n        uint256 depositedValue = deposited[investor];\n        deposited[investor] = 0;\n        investor.transfer(depositedValue);\n        Refunded(investor, depositedValue);\n    }\n\n    function kill(address beneficiary) public onlyOwner {\n        selfdestruct(beneficiary);\n    }\n}\n",
  "sourcePath": "/mnt/data/dev/TokenSaleContracts/contracts/crowdsale/RefundVault.sol",
  "compiler": {
    "name": "solc",
    "version": "0.4.18+commit.9cf6e910.Emscripten.clang"
  },
  "schemaVersion": "1.0.1",
  "updatedAt": "2018-02-16T17:37:23.006Z"
}