{
  "contractName": "SimpleControl",
  "abi": [
    {
      "constant": false,
      "inputs": [
        {
          "name": "_from",
          "type": "address"
        },
        {
          "name": "_to",
          "type": "address"
        },
        {
          "name": "_amount",
          "type": "uint256"
        },
        {
          "name": "_data",
          "type": "bytes"
        }
      ],
      "name": "transfer",
      "outputs": [],
      "payable": false,
      "stateMutability": "nonpayable",
      "type": "function"
    },
    {
      "constant": true,
      "inputs": [
        {
          "name": "",
          "type": "uint256"
        }
      ],
      "name": "admins",
      "outputs": [
        {
          "name": "",
          "type": "address"
        }
      ],
      "payable": false,
      "stateMutability": "view",
      "type": "function"
    },
    {
      "constant": false,
      "inputs": [
        {
          "name": "_admin",
          "type": "address"
        }
      ],
      "name": "removeAdmin",
      "outputs": [],
      "payable": false,
      "stateMutability": "nonpayable",
      "type": "function"
    },
    {
      "constant": true,
      "inputs": [],
      "name": "totalSupply",
      "outputs": [
        {
          "name": "",
          "type": "uint256"
        }
      ],
      "payable": false,
      "stateMutability": "view",
      "type": "function"
    },
    {
      "constant": true,
      "inputs": [],
      "name": "dataCentreAddr",
      "outputs": [
        {
          "name": "",
          "type": "address"
        }
      ],
      "payable": false,
      "stateMutability": "view",
      "type": "function"
    },
    {
      "constant": false,
      "inputs": [],
      "name": "unpause",
      "outputs": [],
      "payable": false,
      "stateMutability": "nonpayable",
      "type": "function"
    },
    {
      "constant": false,
      "inputs": [
        {
          "name": "_sender",
          "type": "address"
        },
        {
          "name": "_from",
          "type": "address"
        },
        {
          "name": "_to",
          "type": "address"
        },
        {
          "name": "_amount",
          "type": "uint256"
        },
        {
          "name": "_data",
          "type": "bytes"
        }
      ],
      "name": "transferFrom",
      "outputs": [],
      "payable": false,
      "stateMutability": "nonpayable",
      "type": "function"
    },
    {
      "constant": true,
      "inputs": [],
      "name": "paused",
      "outputs": [
        {
          "name": "",
          "type": "bool"
        }
      ],
      "payable": false,
      "stateMutability": "view",
      "type": "function"
    },
    {
      "constant": false,
      "inputs": [
        {
          "name": "_admin",
          "type": "address"
        }
      ],
      "name": "addAdmin",
      "outputs": [],
      "payable": false,
      "stateMutability": "nonpayable",
      "type": "function"
    },
    {
      "constant": true,
      "inputs": [
        {
          "name": "_owner",
          "type": "address"
        }
      ],
      "name": "balanceOf",
      "outputs": [
        {
          "name": "",
          "type": "uint256"
        }
      ],
      "payable": false,
      "stateMutability": "view",
      "type": "function"
    },
    {
      "constant": false,
      "inputs": [],
      "name": "pause",
      "outputs": [],
      "payable": false,
      "stateMutability": "nonpayable",
      "type": "function"
    },
    {
      "constant": true,
      "inputs": [],
      "name": "satellite",
      "outputs": [
        {
          "name": "",
          "type": "address"
        }
      ],
      "payable": false,
      "stateMutability": "view",
      "type": "function"
    },
    {
      "constant": true,
      "inputs": [
        {
          "name": "_owner",
          "type": "address"
        },
        {
          "name": "_spender",
          "type": "address"
        }
      ],
      "name": "allowance",
      "outputs": [
        {
          "name": "",
          "type": "uint256"
        }
      ],
      "payable": false,
      "stateMutability": "view",
      "type": "function"
    },
    {
      "constant": false,
      "inputs": [
        {
          "name": "_owner",
          "type": "address"
        },
        {
          "name": "_spender",
          "type": "address"
        },
        {
          "name": "_value",
          "type": "uint256"
        }
      ],
      "name": "approve",
      "outputs": [],
      "payable": false,
      "stateMutability": "nonpayable",
      "type": "function"
    },
    {
      "inputs": [
        {
          "name": "_satellite",
          "type": "address"
        },
        {
          "name": "_dataCentreAddr",
          "type": "address"
        }
      ],
      "payable": false,
      "stateMutability": "nonpayable",
      "type": "constructor"
    },
    {
      "anonymous": false,
      "inputs": [],
      "name": "Pause",
      "type": "event"
    },
    {
      "anonymous": false,
      "inputs": [],
      "name": "Unpause",
      "type": "event"
    }
  ],
  "bytecode": "0x606060405260018060006101000a81548160ff021916908315150217905550341561002957600080fd5b6040516040806115068339810160405280805190602001909190805190602001909190505080600160008161005e9190610141565b503360008081548110151561006f57fe5b906000526020600020900160006101000a81548173ffffffffffffffffffffffffffffffffffffffff021916908373ffffffffffffffffffffffffffffffffffffffff160217905550806001806101000a81548173ffffffffffffffffffffffffffffffffffffffff021916908373ffffffffffffffffffffffffffffffffffffffff1602179055505081600260006101000a81548173ffffffffffffffffffffffffffffffffffffffff021916908373ffffffffffffffffffffffffffffffffffffffff1602179055505050610192565b81548183558181151161016857818360005260206000209182019101610167919061016d565b5b505050565b61018f91905b8082111561018b576000816000905550600101610173565b5090565b90565b611365806101a16000396000f3006060604052600436106100d0576000357c0100000000000000000000000000000000000000000000000000000000900463ffffffff16806312a837b4146100d557806314bfd6d0146101795780631785f53c146101dc57806318160ddd146102155780632533bb9d1461023e5780633f4ba83a146102935780634a280a55146102a85780635c975abb1461036b578063704802751461039857806370a08231146103d15780638456cb591461041e578063a2a9a6c114610433578063dd62ed3e14610488578063e1f21c67146104f4575b600080fd5b34156100e057600080fd5b610177600480803573ffffffffffffffffffffffffffffffffffffffff1690602001909190803573ffffffffffffffffffffffffffffffffffffffff1690602001909190803590602001909190803590602001908201803590602001908080601f01602080910402602001604051908101604052809392919081815260200183838082843782019150505050505091905050610555565b005b341561018457600080fd5b61019a60048080359060200190919050506105f8565b604051808273ffffffffffffffffffffffffffffffffffffffff1673ffffffffffffffffffffffffffffffffffffffff16815260200191505060405180910390f35b34156101e757600080fd5b610213600480803573ffffffffffffffffffffffffffffffffffffffff16906020019091905050610637565b005b341561022057600080fd5b61022861074f565b6040518082815260200191505060405180910390f35b341561024957600080fd5b610251610851565b604051808273ffffffffffffffffffffffffffffffffffffffff1673ffffffffffffffffffffffffffffffffffffffff16815260200191505060405180910390f35b341561029e57600080fd5b6102a6610876565b005b34156102b357600080fd5b610369600480803573ffffffffffffffffffffffffffffffffffffffff1690602001909190803573ffffffffffffffffffffffffffffffffffffffff1690602001909190803573ffffffffffffffffffffffffffffffffffffffff1690602001909190803590602001909190803590602001908201803590602001908080601f01602080910402602001604051908101604052809392919081815260200183838082843782019150505050505091905050610915565b005b341561037657600080fd5b61037e6109df565b604051808215151515815260200191505060405180910390f35b34156103a357600080fd5b6103cf600480803573ffffffffffffffffffffffffffffffffffffffff169060200190919050506109f2565b005b34156103dc57600080fd5b610408600480803573ffffffffffffffffffffffffffffffffffffffff16906020019091905050610ab1565b6040518082815260200191505060405180910390f35b341561042957600080fd5b610431610bc1565b005b341561043e57600080fd5b610446610c60565b604051808273ffffffffffffffffffffffffffffffffffffffff1673ffffffffffffffffffffffffffffffffffffffff16815260200191505060405180910390f35b341561049357600080fd5b6104de600480803573ffffffffffffffffffffffffffffffffffffffff1690602001909190803573ffffffffffffffffffffffffffffffffffffffff16906020019091905050610c86565b6040518082815260200191505060405180910390f35b34156104ff57600080fd5b610553600480803573ffffffffffffffffffffffffffffffffffffffff1690602001909190803573ffffffffffffffffffffffffffffffffffffffff16906020019091908035906020019091905050610dcb565b005b600260009054906101000a900473ffffffffffffffffffffffffffffffffffffffff1673ffffffffffffffffffffffffffffffffffffffff163373ffffffffffffffffffffffffffffffffffffffff161415156105b157600080fd5b8360006105bd82610ea7565b509050600160009054906101000a900460ff1615806105d95750805b15156105e457600080fd5b6105f086868686610f4a565b505050505050565b60008181548110151561060757fe5b90600052602060002090016000915054906101000a900473ffffffffffffffffffffffffffffffffffffffff1681565b600080600061064533610ea7565b5090506001151581151514151561065b57600080fd5b61066484610ea7565b9250925082151561067457600080fd5b6000805490508210151561068757600080fd5b6001600080549050038210156107335760006001600080549050038154811015156106ae57fe5b906000526020600020900160009054906101000a900473ffffffffffffffffffffffffffffffffffffffff166000838154811015156106e957fe5b906000526020600020900160006101000a81548173ffffffffffffffffffffffffffffffffffffffff021916908373ffffffffffffffffffffffffffffffffffffffff1602179055505b600080548091906001900361074891906112e8565b5050505050565b60006001809054906101000a900473ffffffffffffffffffffffffffffffffffffffff1673ffffffffffffffffffffffffffffffffffffffff16637b01127c6000604051602001526040518163ffffffff167c010000000000000000000000000000000000000000000000000000000002815260040180807f5452490000000000000000000000000000000000000000000000000000000000815250602001807f746f74616c537570706c790000000000000000000000000000000000000000008152506020019050602060405180830381600087803b151561083157600080fd5b6102c65a03f1151561084257600080fd5b50505060405180519050905090565b6001809054906101000a900473ffffffffffffffffffffffffffffffffffffffff1681565b600061088133610ea7565b5090506001151581151514151561089757600080fd5b3360006108a382610ea7565b509050600160009054906101000a900460ff16806108be5750805b15156108c957600080fd5b6000600160006101000a81548160ff0219169083151502179055507f7805862f689e2f13df9f062ff482ad3ad112aca9e0847911ed832e158c525b3360405160405180910390a1505050565b600260009054906101000a900473ffffffffffffffffffffffffffffffffffffffff1673ffffffffffffffffffffffffffffffffffffffff163373ffffffffffffffffffffffffffffffffffffffff1614151561097157600080fd5b84600061097d82610ea7565b509050600160009054906101000a900460ff1615806109995750805b15156109a457600080fd5b6109ca86866109c5876109b78b8b610c86565b61105990919063ffffffff16565b611075565b6109d686868686610f4a565b50505050505050565b600160009054906101000a900460ff1681565b6000806109fe33610ea7565b50905060011515811515141515610a1457600080fd5b610a1d83610ea7565b50915081151515610a2d57600080fd5b600a600080549050101515610a4157600080fd5b826000808054809190600101610a5791906112e8565b815481101515610a6357fe5b906000526020600020900160006101000a81548173ffffffffffffffffffffffffffffffffffffffff021916908373ffffffffffffffffffffffffffffffffffffffff160217905550505050565b60006001809054906101000a900473ffffffffffffffffffffffffffffffffffffffff1673ffffffffffffffffffffffffffffffffffffffff1663f4e76a46836000604051602001526040518263ffffffff167c010000000000000000000000000000000000000000000000000000000002815260040180807f54524900000000000000000000000000000000000000000000000000000000008152506020018273ffffffffffffffffffffffffffffffffffffffff1673ffffffffffffffffffffffffffffffffffffffff168152602001915050602060405180830381600087803b1515610b9f57600080fd5b6102c65a03f11515610bb057600080fd5b505050604051805190509050919050565b6000610bcc33610ea7565b50905060011515811515141515610be257600080fd5b336000610bee82610ea7565b509050600160009054906101000a900460ff161580610c0a5750805b1515610c1557600080fd5b60018060006101000a81548160ff0219169083151502179055507f6985a02210a168e66602d3235cb6db0e70f92b3ba4d376a33c0f3d9434bff62560405160405180910390a1505050565b600260009054906101000a900473ffffffffffffffffffffffffffffffffffffffff1681565b60006001809054906101000a900473ffffffffffffffffffffffffffffffffffffffff1673ffffffffffffffffffffffffffffffffffffffff1663eb8fb3ec84846000604051602001526040518363ffffffff167c010000000000000000000000000000000000000000000000000000000002815260040180807f54524900000000000000000000000000000000000000000000000000000000008152506020018373ffffffffffffffffffffffffffffffffffffffff1673ffffffffffffffffffffffffffffffffffffffff1681526020018273ffffffffffffffffffffffffffffffffffffffff1673ffffffffffffffffffffffffffffffffffffffff16815260200192505050602060405180830381600087803b1515610da857600080fd5b6102c65a03f11515610db957600080fd5b50505060405180519050905092915050565b600260009054906101000a900473ffffffffffffffffffffffffffffffffffffffff1673ffffffffffffffffffffffffffffffffffffffff163373ffffffffffffffffffffffffffffffffffffffff16141515610e2757600080fd5b826000610e3382610ea7565b509050600160009054906101000a900460ff161580610e4f5750805b1515610e5a57600080fd5b8373ffffffffffffffffffffffffffffffffffffffff168573ffffffffffffffffffffffffffffffffffffffff1614151515610e9557600080fd5b610ea0858585611075565b5050505050565b6000806000809250600090505b600080549050811015610f4457600081815481101515610ed057fe5b906000526020600020900160009054906101000a900473ffffffffffffffffffffffffffffffffffffffff1673ffffffffffffffffffffffffffffffffffffffff168473ffffffffffffffffffffffffffffffffffffffff161415610f3757600192508091505b8080600101915050610eb4565b50915091565b3073ffffffffffffffffffffffffffffffffffffffff168373ffffffffffffffffffffffffffffffffffffffff1614151515610f8557600080fd5b600073ffffffffffffffffffffffffffffffffffffffff168373ffffffffffffffffffffffffffffffffffffffff1614151515610fc157600080fd5b600082111515610fd057600080fd5b8273ffffffffffffffffffffffffffffffffffffffff168473ffffffffffffffffffffffffffffffffffffffff161415151561100b57600080fd5b61102f8461102a8461101c88610ab1565b61105990919063ffffffff16565b6111c4565b6110538361104e8461104087610ab1565b6112c790919063ffffffff16565b6111c4565b50505050565b600082821115151561106a57600080fd5b818303905092915050565b8061107f84610ab1565b1015151561108c57600080fd5b6001809054906101000a900473ffffffffffffffffffffffffffffffffffffffff1673ffffffffffffffffffffffffffffffffffffffff16637dc4feb78484846040518463ffffffff167c010000000000000000000000000000000000000000000000000000000002815260040180807f54524900000000000000000000000000000000000000000000000000000000008152506020018473ffffffffffffffffffffffffffffffffffffffff1673ffffffffffffffffffffffffffffffffffffffff1681526020018373ffffffffffffffffffffffffffffffffffffffff1673ffffffffffffffffffffffffffffffffffffffff1681526020018281526020019350505050600060405180830381600087803b15156111ab57600080fd5b6102c65a03f115156111bc57600080fd5b505050505050565b6001809054906101000a900473ffffffffffffffffffffffffffffffffffffffff1673ffffffffffffffffffffffffffffffffffffffff1663a309f2ee83836040518363ffffffff167c010000000000000000000000000000000000000000000000000000000002815260040180807f54524900000000000000000000000000000000000000000000000000000000008152506020018373ffffffffffffffffffffffffffffffffffffffff1673ffffffffffffffffffffffffffffffffffffffff16815260200182815260200192505050600060405180830381600087803b15156112af57600080fd5b6102c65a03f115156112c057600080fd5b5050505050565b60008082840190508381101515156112de57600080fd5b8091505092915050565b81548183558181151161130f5781836000526020600020918201910161130e9190611314565b5b505050565b61133691905b8082111561133257600081600090555060010161131a565b5090565b905600a165627a7a7230582095f60adb28850e28c9e9636279e1f7d786defb951670f54e22e5d48f8e6f1b6e0029",
  "source": "pragma solidity ^0.4.18;\n\nimport './DataManager.sol';\nimport '../SafeMath.sol';\n\n\ncontract SimpleControl is DataManager {\n    using SafeMath for uint;\n\n    // not necessary to store in data centre  address public satellite;\n\n    address public satellite;\n\n    modifier onlyToken {\n        require(msg.sender == satellite);\n        _;\n    }\n\n    function SimpleControl(address _satellite, address _dataCentreAddr) public\n        DataManager(_dataCentreAddr)\n    {\n        satellite = _satellite;\n    }\n\n    // public functions\n    function approve(address _owner, address _spender, uint256 _value) public onlyToken whenNotPaused(_owner) {\n        require(_owner != _spender);\n        _setAllowance(_owner, _spender, _value);\n    }\n\n    function transfer(address _from, address _to, uint256 _amount, bytes _data) public onlyToken whenNotPaused(_from) {\n        _transfer(_from, _to, _amount, _data);\n    }\n\n    function transferFrom(address _sender, address _from, address _to, uint256 _amount, bytes _data) public onlyToken whenNotPaused(_sender) {\n        _setAllowance(_from, _to, allowance(_from, _to).sub(_amount));\n        _transfer(_from, _to, _amount, _data);\n    }\n\n    function _transfer(address _from, address _to, uint256 _amount, bytes _data) internal {\n        require(_to != address(this));\n        require(_to != address(0));\n        require(_amount > 0);\n        require(_from != _to);\n        _setBalanceOf(_from, balanceOf(_from).sub(_amount));\n        _setBalanceOf(_to, balanceOf(_to).add(_amount));\n    }\n}\n",
  "sourcePath": "/mnt/data/dev/TokenSaleContracts/contracts/controller/SimpleControl.sol",
  "compiler": {
    "name": "solc",
    "version": "0.4.18+commit.9cf6e910.Emscripten.clang"
  },
  "schemaVersion": "1.0.1",
  "updatedAt": "2018-02-16T17:37:23.005Z"
}