{
  "contractName": "TriController",
  "abi": [
    {
      "constant": true,
      "inputs": [],
      "name": "mintingFinished",
      "outputs": [
        {
          "name": "",
          "type": "bool"
        }
      ],
      "payable": false,
      "stateMutability": "view",
      "type": "function"
    },
    {
      "constant": false,
      "inputs": [
        {
          "name": "_owner",
          "type": "address"
        },
        {
          "name": "to",
          "type": "address"
        },
        {
          "name": "value",
          "type": "uint256"
        },
        {
          "name": "data",
          "type": "bytes"
        }
      ],
      "name": "transfer",
      "outputs": [],
      "payable": false,
      "stateMutability": "nonpayable",
      "type": "function"
    },
    {
      "constant": true,
      "inputs": [
        {
          "name": "",
          "type": "uint256"
        }
      ],
      "name": "admins",
      "outputs": [
        {
          "name": "",
          "type": "address"
        }
      ],
      "payable": false,
      "stateMutability": "view",
      "type": "function"
    },
    {
      "constant": false,
      "inputs": [
        {
          "name": "_admin",
          "type": "address"
        }
      ],
      "name": "removeAdmin",
      "outputs": [],
      "payable": false,
      "stateMutability": "nonpayable",
      "type": "function"
    },
    {
      "constant": true,
      "inputs": [],
      "name": "totalSupply",
      "outputs": [
        {
          "name": "",
          "type": "uint256"
        }
      ],
      "payable": false,
      "stateMutability": "view",
      "type": "function"
    },
    {
      "constant": true,
      "inputs": [],
      "name": "dataCentreAddr",
      "outputs": [
        {
          "name": "",
          "type": "address"
        }
      ],
      "payable": false,
      "stateMutability": "view",
      "type": "function"
    },
    {
      "constant": false,
      "inputs": [],
      "name": "unpause",
      "outputs": [],
      "payable": false,
      "stateMutability": "nonpayable",
      "type": "function"
    },
    {
      "constant": false,
      "inputs": [
        {
          "name": "_to",
          "type": "address"
        },
        {
          "name": "_amount",
          "type": "uint256"
        }
      ],
      "name": "mint",
      "outputs": [
        {
          "name": "",
          "type": "bool"
        }
      ],
      "payable": false,
      "stateMutability": "nonpayable",
      "type": "function"
    },
    {
      "constant": false,
      "inputs": [
        {
          "name": "_owner",
          "type": "address"
        },
        {
          "name": "_from",
          "type": "address"
        },
        {
          "name": "_to",
          "type": "address"
        },
        {
          "name": "_amount",
          "type": "uint256"
        },
        {
          "name": "_data",
          "type": "bytes"
        }
      ],
      "name": "transferFrom",
      "outputs": [],
      "payable": false,
      "stateMutability": "nonpayable",
      "type": "function"
    },
    {
      "constant": true,
      "inputs": [],
      "name": "paused",
      "outputs": [
        {
          "name": "",
          "type": "bool"
        }
      ],
      "payable": false,
      "stateMutability": "view",
      "type": "function"
    },
    {
      "constant": false,
      "inputs": [
        {
          "name": "_admin",
          "type": "address"
        }
      ],
      "name": "addAdmin",
      "outputs": [],
      "payable": false,
      "stateMutability": "nonpayable",
      "type": "function"
    },
    {
      "constant": true,
      "inputs": [
        {
          "name": "_owner",
          "type": "address"
        }
      ],
      "name": "balanceOf",
      "outputs": [
        {
          "name": "",
          "type": "uint256"
        }
      ],
      "payable": false,
      "stateMutability": "view",
      "type": "function"
    },
    {
      "constant": false,
      "inputs": [],
      "name": "finishMinting",
      "outputs": [
        {
          "name": "",
          "type": "bool"
        }
      ],
      "payable": false,
      "stateMutability": "nonpayable",
      "type": "function"
    },
    {
      "constant": false,
      "inputs": [],
      "name": "pause",
      "outputs": [],
      "payable": false,
      "stateMutability": "nonpayable",
      "type": "function"
    },
    {
      "constant": false,
      "inputs": [],
      "name": "startMinting",
      "outputs": [
        {
          "name": "",
          "type": "bool"
        }
      ],
      "payable": false,
      "stateMutability": "nonpayable",
      "type": "function"
    },
    {
      "constant": true,
      "inputs": [],
      "name": "satellite",
      "outputs": [
        {
          "name": "",
          "type": "address"
        }
      ],
      "payable": false,
      "stateMutability": "view",
      "type": "function"
    },
    {
      "constant": false,
      "inputs": [
        {
          "name": "_newController",
          "type": "address"
        }
      ],
      "name": "kill",
      "outputs": [],
      "payable": false,
      "stateMutability": "nonpayable",
      "type": "function"
    },
    {
      "constant": false,
      "inputs": [
        {
          "name": "_satellite",
          "type": "address"
        },
        {
          "name": "_dataCentreAddr",
          "type": "address"
        }
      ],
      "name": "setContracts",
      "outputs": [],
      "payable": false,
      "stateMutability": "nonpayable",
      "type": "function"
    },
    {
      "constant": true,
      "inputs": [
        {
          "name": "_owner",
          "type": "address"
        },
        {
          "name": "_spender",
          "type": "address"
        }
      ],
      "name": "allowance",
      "outputs": [
        {
          "name": "",
          "type": "uint256"
        }
      ],
      "payable": false,
      "stateMutability": "view",
      "type": "function"
    },
    {
      "constant": false,
      "inputs": [
        {
          "name": "_owner",
          "type": "address"
        },
        {
          "name": "_spender",
          "type": "address"
        },
        {
          "name": "_value",
          "type": "uint256"
        }
      ],
      "name": "approve",
      "outputs": [],
      "payable": false,
      "stateMutability": "nonpayable",
      "type": "function"
    },
    {
      "inputs": [
        {
          "name": "_satellite",
          "type": "address"
        },
        {
          "name": "_dataCentreAddr",
          "type": "address"
        }
      ],
      "payable": false,
      "stateMutability": "nonpayable",
      "type": "constructor"
    },
    {
      "anonymous": false,
      "inputs": [],
      "name": "Pause",
      "type": "event"
    },
    {
      "anonymous": false,
      "inputs": [],
      "name": "Unpause",
      "type": "event"
    }
  ],
  "bytecode": "0x606060405260018060006101000a81548160ff02191690831515021790555034156200002a57600080fd5b6040516040806200204d8339810160405280805190602001909190805190602001909190505081818181818180600160008162000068919062000153565b50336000808154811015156200007a57fe5b906000526020600020900160006101000a81548173ffffffffffffffffffffffffffffffffffffffff021916908373ffffffffffffffffffffffffffffffffffffffff160217905550806001806101000a81548173ffffffffffffffffffffffffffffffffffffffff021916908373ffffffffffffffffffffffffffffffffffffffff1602179055505081600260006101000a81548173ffffffffffffffffffffffffffffffffffffffff021916908373ffffffffffffffffffffffffffffffffffffffff1602179055505050505050505050620001aa565b8154818355818115116200017d578183600052602060002091820191016200017c919062000182565b5b505050565b620001a791905b80821115620001a357600081600090555060010162000189565b5090565b90565b611e9380620001ba6000396000f300606060405260043610610112576000357c0100000000000000000000000000000000000000000000000000000000900463ffffffff16806305d2035b1461011757806312a837b41461014457806314bfd6d0146101e85780631785f53c1461024b57806318160ddd146102845780632533bb9d146102ad5780633f4ba83a1461030257806340c10f19146103175780634a280a55146103715780635c975abb14610434578063704802751461046157806370a082311461049a5780637d64bcb4146104e75780638456cb59146105145780639a65ea2614610529578063a2a9a6c114610556578063cbf0b0c0146105ab578063d8952a49146105e4578063dd62ed3e1461063c578063e1f21c67146106a8575b600080fd5b341561012257600080fd5b61012a610709565b604051808215151515815260200191505060405180910390f35b341561014f57600080fd5b6101e6600480803573ffffffffffffffffffffffffffffffffffffffff1690602001909190803573ffffffffffffffffffffffffffffffffffffffff1690602001909190803590602001909190803590602001908201803590602001908080601f0160208091040260200160405190810160405280939291908181526020018383808284378201915050505050509190505061071c565b005b34156101f357600080fd5b610209600480803590602001909190505061076c565b604051808273ffffffffffffffffffffffffffffffffffffffff1673ffffffffffffffffffffffffffffffffffffffff16815260200191505060405180910390f35b341561025657600080fd5b610282600480803573ffffffffffffffffffffffffffffffffffffffff169060200190919050506107ab565b005b341561028f57600080fd5b6102976108c3565b6040518082815260200191505060405180910390f35b34156102b857600080fd5b6102c06109c5565b604051808273ffffffffffffffffffffffffffffffffffffffff1673ffffffffffffffffffffffffffffffffffffffff16815260200191505060405180910390f35b341561030d57600080fd5b6103156109ea565b005b341561032257600080fd5b610357600480803573ffffffffffffffffffffffffffffffffffffffff16906020019091908035906020019091905050610a89565b604051808215151515815260200191505060405180910390f35b341561037c57600080fd5b610432600480803573ffffffffffffffffffffffffffffffffffffffff1690602001909190803573ffffffffffffffffffffffffffffffffffffffff1690602001909190803573ffffffffffffffffffffffffffffffffffffffff1690602001909190803590602001909190803590602001908201803590602001908080601f01602080910402602001604051908101604052809392919081815260200183838082843782019150505050505091905050610c59565b005b341561043f57600080fd5b610447610cab565b604051808215151515815260200191505060405180910390f35b341561046c57600080fd5b610498600480803573ffffffffffffffffffffffffffffffffffffffff16906020019091905050610cbe565b005b34156104a557600080fd5b6104d1600480803573ffffffffffffffffffffffffffffffffffffffff16906020019091905050610d7d565b6040518082815260200191505060405180910390f35b34156104f257600080fd5b6104fa610e8d565b604051808215151515815260200191505060405180910390f35b341561051f57600080fd5b610527610f9a565b005b341561053457600080fd5b61053c611039565b604051808215151515815260200191505060405180910390f35b341561056157600080fd5b610569611146565b604051808273ffffffffffffffffffffffffffffffffffffffff1673ffffffffffffffffffffffffffffffffffffffff16815260200191505060405180910390f35b34156105b657600080fd5b6105e2600480803573ffffffffffffffffffffffffffffffffffffffff1690602001909190505061116c565b005b34156105ef57600080fd5b61063a600480803573ffffffffffffffffffffffffffffffffffffffff1690602001909190803573ffffffffffffffffffffffffffffffffffffffff16906020019091905050611428565b005b341561064757600080fd5b610692600480803573ffffffffffffffffffffffffffffffffffffffff1690602001909190803573ffffffffffffffffffffffffffffffffffffffff16906020019091905050611503565b6040518082815260200191505060405180910390f35b34156106b357600080fd5b610707600480803573ffffffffffffffffffffffffffffffffffffffff1690602001909190803573ffffffffffffffffffffffffffffffffffffffff16906020019091908035906020019091905050611648565b005b600260149054906101000a900460ff1681565b600084600061072a82611696565b509050821515600260149054906101000a900460ff16151515148061074c5750805b151561075757600080fd5b61076387878787611739565b50505050505050565b60008181548110151561077b57fe5b90600052602060002090016000915054906101000a900473ffffffffffffffffffffffffffffffffffffffff1681565b60008060006107b933611696565b509050600115158115151415156107cf57600080fd5b6107d884611696565b925092508215156107e857600080fd5b600080549050821015156107fb57600080fd5b6001600080549050038210156108a757600060016000805490500381548110151561082257fe5b906000526020600020900160009054906101000a900473ffffffffffffffffffffffffffffffffffffffff1660008381548110151561085d57fe5b906000526020600020900160006101000a81548173ffffffffffffffffffffffffffffffffffffffff021916908373ffffffffffffffffffffffffffffffffffffffff1602179055505b60008054809190600190036108bc9190611e16565b5050505050565b60006001809054906101000a900473ffffffffffffffffffffffffffffffffffffffff1673ffffffffffffffffffffffffffffffffffffffff16637b01127c6000604051602001526040518163ffffffff167c010000000000000000000000000000000000000000000000000000000002815260040180807f5452490000000000000000000000000000000000000000000000000000000000815250602001807f746f74616c537570706c790000000000000000000000000000000000000000008152506020019050602060405180830381600087803b15156109a557600080fd5b6102c65a03f115156109b657600080fd5b50505060405180519050905090565b6001809054906101000a900473ffffffffffffffffffffffffffffffffffffffff1681565b60006109f533611696565b50905060011515811515141515610a0b57600080fd5b336000610a1782611696565b509050600160009054906101000a900460ff1680610a325750805b1515610a3d57600080fd5b6000600160006101000a81548160ff0219169083151502179055507f7805862f689e2f13df9f062ff482ad3ad112aca9e0847911ed832e158c525b3360405160405180910390a1505050565b6000826000610a9782611696565b509050600160009054906101000a900460ff161580610ab35750805b1515610abe57600080fd5b6001336000610acc82611696565b509050821515600260149054906101000a900460ff161515151480610aee5750805b1515610af957600080fd5b6000610b0433611696565b50905060011515811515141515610b1a57600080fd5b610b3c610b3789610b296108c3565b6117dc90919063ffffffff16565b6117fd565b610b6089610b5b8a610b4d8d610d7d565b6117dc90919063ffffffff16565b6118f3565b600260009054906101000a900473ffffffffffffffffffffffffffffffffffffffff1673ffffffffffffffffffffffffffffffffffffffff166340c10f198a8a6000604051602001526040518363ffffffff167c0100000000000000000000000000000000000000000000000000000000028152600401808373ffffffffffffffffffffffffffffffffffffffff1673ffffffffffffffffffffffffffffffffffffffff16815260200182815260200192505050602060405180830381600087803b1515610c2d57600080fd5b6102c65a03f11515610c3e57600080fd5b50505060405180519050506001965050505050505092915050565b6000856000610c6782611696565b509050821515600260149054906101000a900460ff161515151480610c895750805b1515610c9457600080fd5b610ca188888888886119f6565b5050505050505050565b600160009054906101000a900460ff1681565b600080610cca33611696565b50905060011515811515141515610ce057600080fd5b610ce983611696565b50915081151515610cf957600080fd5b600a600080549050101515610d0d57600080fd5b826000808054809190600101610d239190611e16565b815481101515610d2f57fe5b906000526020600020900160006101000a81548173ffffffffffffffffffffffffffffffffffffffff021916908373ffffffffffffffffffffffffffffffffffffffff160217905550505050565b60006001809054906101000a900473ffffffffffffffffffffffffffffffffffffffff1673ffffffffffffffffffffffffffffffffffffffff1663f4e76a46836000604051602001526040518263ffffffff167c010000000000000000000000000000000000000000000000000000000002815260040180807f54524900000000000000000000000000000000000000000000000000000000008152506020018273ffffffffffffffffffffffffffffffffffffffff1673ffffffffffffffffffffffffffffffffffffffff168152602001915050602060405180830381600087803b1515610e6b57600080fd5b6102c65a03f11515610e7c57600080fd5b505050604051805190509050919050565b600080610e9933611696565b50905060011515811515141515610eaf57600080fd5b6001600260146101000a81548160ff021916908315150217905550600260009054906101000a900473ffffffffffffffffffffffffffffffffffffffff1673ffffffffffffffffffffffffffffffffffffffff1663a66fd42b600260149054906101000a900460ff166000604051602001526040518263ffffffff167c01000000000000000000000000000000000000000000000000000000000281526004018082151515158152602001915050602060405180830381600087803b1515610f7657600080fd5b6102c65a03f11515610f8757600080fd5b5050506040518051905050600191505090565b6000610fa533611696565b50905060011515811515141515610fbb57600080fd5b336000610fc782611696565b509050600160009054906101000a900460ff161580610fe35750805b1515610fee57600080fd5b60018060006101000a81548160ff0219169083151502179055507f6985a02210a168e66602d3235cb6db0e70f92b3ba4d376a33c0f3d9434bff62560405160405180910390a1505050565b60008061104533611696565b5090506001151581151514151561105b57600080fd5b6000600260146101000a81548160ff021916908315150217905550600260009054906101000a900473ffffffffffffffffffffffffffffffffffffffff1673ffffffffffffffffffffffffffffffffffffffff1663a66fd42b600260149054906101000a900460ff166000604051602001526040518263ffffffff167c01000000000000000000000000000000000000000000000000000000000281526004018082151515158152602001915050602060405180830381600087803b151561112257600080fd5b6102c65a03f1151561113357600080fd5b5050506040518051905050600191505090565b600260009054906101000a900473ffffffffffffffffffffffffffffffffffffffff1681565b600061117733611696565b5090506001151581151514151561118d57600080fd5b33600061119982611696565b509050600160009054906101000a900460ff16806111b45750805b15156111bf57600080fd5b600073ffffffffffffffffffffffffffffffffffffffff166001809054906101000a900473ffffffffffffffffffffffffffffffffffffffff1673ffffffffffffffffffffffffffffffffffffffff161415156112e6576001809054906101000a900473ffffffffffffffffffffffffffffffffffffffff1673ffffffffffffffffffffffffffffffffffffffff1663f2fde38b336040518263ffffffff167c0100000000000000000000000000000000000000000000000000000000028152600401808273ffffffffffffffffffffffffffffffffffffffff1673ffffffffffffffffffffffffffffffffffffffff168152602001915050600060405180830381600087803b15156112d157600080fd5b6102c65a03f115156112e257600080fd5b5050505b600073ffffffffffffffffffffffffffffffffffffffff16600260009054906101000a900473ffffffffffffffffffffffffffffffffffffffff1673ffffffffffffffffffffffffffffffffffffffff1614151561140f57600260009054906101000a900473ffffffffffffffffffffffffffffffffffffffff1673ffffffffffffffffffffffffffffffffffffffff1663f2fde38b336040518263ffffffff167c0100000000000000000000000000000000000000000000000000000000028152600401808273ffffffffffffffffffffffffffffffffffffffff1673ffffffffffffffffffffffffffffffffffffffff168152602001915050600060405180830381600087803b15156113fa57600080fd5b6102c65a03f1151561140b57600080fd5b5050505b8373ffffffffffffffffffffffffffffffffffffffff16ff5b600061143333611696565b5090506001151581151514151561144957600080fd5b33600061145582611696565b509050600160009054906101000a900460ff16806114705750805b151561147b57600080fd5b836001806101000a81548173ffffffffffffffffffffffffffffffffffffffff021916908373ffffffffffffffffffffffffffffffffffffffff16021790555084600260006101000a81548173ffffffffffffffffffffffffffffffffffffffff021916908373ffffffffffffffffffffffffffffffffffffffff1602179055505050505050565b60006001809054906101000a900473ffffffffffffffffffffffffffffffffffffffff1673ffffffffffffffffffffffffffffffffffffffff1663eb8fb3ec84846000604051602001526040518363ffffffff167c010000000000000000000000000000000000000000000000000000000002815260040180807f54524900000000000000000000000000000000000000000000000000000000008152506020018373ffffffffffffffffffffffffffffffffffffffff1673ffffffffffffffffffffffffffffffffffffffff1681526020018273ffffffffffffffffffffffffffffffffffffffff1673ffffffffffffffffffffffffffffffffffffffff16815260200192505050602060405180830381600087803b151561162557600080fd5b6102c65a03f1151561163657600080fd5b50505060405180519050905092915050565b600083600061165682611696565b509050821515600260149054906101000a900460ff1615151514806116785750805b151561168357600080fd5b61168e868686611ac0565b505050505050565b6000806000809250600090505b600080549050811015611733576000818154811015156116bf57fe5b906000526020600020900160009054906101000a900473ffffffffffffffffffffffffffffffffffffffff1673ffffffffffffffffffffffffffffffffffffffff168473ffffffffffffffffffffffffffffffffffffffff16141561172657600192508091505b80806001019150506116a3565b50915091565b600260009054906101000a900473ffffffffffffffffffffffffffffffffffffffff1673ffffffffffffffffffffffffffffffffffffffff163373ffffffffffffffffffffffffffffffffffffffff1614151561179557600080fd5b8360006117a182611696565b509050600160009054906101000a900460ff1615806117bd5750805b15156117c857600080fd5b6117d486868686611b9c565b505050505050565b60008082840190508381101515156117f357600080fd5b8091505092915050565b6001809054906101000a900473ffffffffffffffffffffffffffffffffffffffff1673ffffffffffffffffffffffffffffffffffffffff1663a9d85266826040518263ffffffff167c010000000000000000000000000000000000000000000000000000000002815260040180807f5452490000000000000000000000000000000000000000000000000000000000815250602001807f746f74616c537570706c79000000000000000000000000000000000000000000815250602001828152602001915050600060405180830381600087803b15156118dc57600080fd5b6102c65a03f115156118ed57600080fd5b50505050565b6001809054906101000a900473ffffffffffffffffffffffffffffffffffffffff1673ffffffffffffffffffffffffffffffffffffffff1663a309f2ee83836040518363ffffffff167c010000000000000000000000000000000000000000000000000000000002815260040180807f54524900000000000000000000000000000000000000000000000000000000008152506020018373ffffffffffffffffffffffffffffffffffffffff1673ffffffffffffffffffffffffffffffffffffffff16815260200182815260200192505050600060405180830381600087803b15156119de57600080fd5b6102c65a03f115156119ef57600080fd5b5050505050565b600260009054906101000a900473ffffffffffffffffffffffffffffffffffffffff1673ffffffffffffffffffffffffffffffffffffffff163373ffffffffffffffffffffffffffffffffffffffff16141515611a5257600080fd5b846000611a5e82611696565b509050600160009054906101000a900460ff161580611a7a5750805b1515611a8557600080fd5b611aab8686611aa687611a988b8b611503565b611cab90919063ffffffff16565b611cc7565b611ab786868686611b9c565b50505050505050565b600260009054906101000a900473ffffffffffffffffffffffffffffffffffffffff1673ffffffffffffffffffffffffffffffffffffffff163373ffffffffffffffffffffffffffffffffffffffff16141515611b1c57600080fd5b826000611b2882611696565b509050600160009054906101000a900460ff161580611b445750805b1515611b4f57600080fd5b8373ffffffffffffffffffffffffffffffffffffffff168573ffffffffffffffffffffffffffffffffffffffff1614151515611b8a57600080fd5b611b95858585611cc7565b5050505050565b3073ffffffffffffffffffffffffffffffffffffffff168373ffffffffffffffffffffffffffffffffffffffff1614151515611bd757600080fd5b600073ffffffffffffffffffffffffffffffffffffffff168373ffffffffffffffffffffffffffffffffffffffff1614151515611c1357600080fd5b600082111515611c2257600080fd5b8273ffffffffffffffffffffffffffffffffffffffff168473ffffffffffffffffffffffffffffffffffffffff1614151515611c5d57600080fd5b611c8184611c7c84611c6e88610d7d565b611cab90919063ffffffff16565b6118f3565b611ca583611ca084611c9287610d7d565b6117dc90919063ffffffff16565b6118f3565b50505050565b6000828211151515611cbc57600080fd5b818303905092915050565b80611cd184610d7d565b10151515611cde57600080fd5b6001809054906101000a900473ffffffffffffffffffffffffffffffffffffffff1673ffffffffffffffffffffffffffffffffffffffff16637dc4feb78484846040518463ffffffff167c010000000000000000000000000000000000000000000000000000000002815260040180807f54524900000000000000000000000000000000000000000000000000000000008152506020018473ffffffffffffffffffffffffffffffffffffffff1673ffffffffffffffffffffffffffffffffffffffff1681526020018373ffffffffffffffffffffffffffffffffffffffff1673ffffffffffffffffffffffffffffffffffffffff1681526020018281526020019350505050600060405180830381600087803b1515611dfd57600080fd5b6102c65a03f11515611e0e57600080fd5b505050505050565b815481835581811511611e3d57818360005260206000209182019101611e3c9190611e42565b5b505050565b611e6491905b80821115611e60576000816000905550600101611e48565b5090565b905600a165627a7a7230582071cb7cf54794c434958d76e1a17a9ea1aeb2034a3d84ab5430fddf52fbae4c960029",
  "source": "pragma solidity ^0.4.18;\n\nimport '../controller/Controller.sol';\nimport '../controller/add-ons/TransferLockedToken.sol';\n\n\ncontract TriController is TransferLockedToken, Controller {\n\n    function TriController(address _satellite, address _dataCentreAddr)\n        TransferLockedToken()\n        Controller(_satellite, _dataCentreAddr)\n    {\n\n    }\n}\n",
  "sourcePath": "/mnt/data/dev/TokenSaleContracts/contracts/triForceNetwork/TriController.sol",
  "compiler": {
    "name": "solc",
    "version": "0.4.18+commit.9cf6e910.Emscripten.clang"
  },
  "schemaVersion": "1.0.1",
  "updatedAt": "2018-02-16T17:58:36.502Z"
}