{
  "contractName": "TriForceNetworkCrowdsale",
  "abi": [
    {
      "constant": true,
      "inputs": [],
      "name": "totalSupply",
      "outputs": [
        {
          "name": "",
          "type": "uint256"
        }
      ],
      "payable": false,
      "stateMutability": "view",
      "type": "function"
    },
    {
      "constant": true,
      "inputs": [],
      "name": "bonusFactor",
      "outputs": [
        {
          "name": "",
          "type": "uint256"
        }
      ],
      "payable": false,
      "stateMutability": "view",
      "type": "function"
    },
    {
      "constant": true,
      "inputs": [],
      "name": "rate",
      "outputs": [
        {
          "name": "",
          "type": "uint256"
        }
      ],
      "payable": false,
      "stateMutability": "view",
      "type": "function"
    },
    {
      "constant": true,
      "inputs": [],
      "name": "endTime",
      "outputs": [
        {
          "name": "",
          "type": "uint256"
        }
      ],
      "payable": false,
      "stateMutability": "view",
      "type": "function"
    },
    {
      "constant": true,
      "inputs": [],
      "name": "goal",
      "outputs": [
        {
          "name": "",
          "type": "uint256"
        }
      ],
      "payable": false,
      "stateMutability": "view",
      "type": "function"
    },
    {
      "constant": true,
      "inputs": [],
      "name": "weiRaised",
      "outputs": [
        {
          "name": "",
          "type": "uint256"
        }
      ],
      "payable": false,
      "stateMutability": "view",
      "type": "function"
    },
    {
      "constant": true,
      "inputs": [],
      "name": "whitelistAddr",
      "outputs": [
        {
          "name": "",
          "type": "address"
        }
      ],
      "payable": false,
      "stateMutability": "view",
      "type": "function"
    },
    {
      "constant": false,
      "inputs": [
        {
          "name": "_beneficiary",
          "type": "address"
        }
      ],
      "name": "finalize",
      "outputs": [],
      "payable": false,
      "stateMutability": "nonpayable",
      "type": "function"
    },
    {
      "constant": true,
      "inputs": [],
      "name": "wallet",
      "outputs": [
        {
          "name": "",
          "type": "address"
        }
      ],
      "payable": false,
      "stateMutability": "view",
      "type": "function"
    },
    {
      "constant": false,
      "inputs": [
        {
          "name": "beneficiary",
          "type": "address"
        }
      ],
      "name": "killVault",
      "outputs": [],
      "payable": false,
      "stateMutability": "nonpayable",
      "type": "function"
    },
    {
      "constant": true,
      "inputs": [],
      "name": "startTime",
      "outputs": [
        {
          "name": "",
          "type": "uint256"
        }
      ],
      "payable": false,
      "stateMutability": "view",
      "type": "function"
    },
    {
      "constant": true,
      "inputs": [],
      "name": "goalReached",
      "outputs": [
        {
          "name": "",
          "type": "bool"
        }
      ],
      "payable": false,
      "stateMutability": "view",
      "type": "function"
    },
    {
      "constant": true,
      "inputs": [],
      "name": "isFinalized",
      "outputs": [
        {
          "name": "",
          "type": "bool"
        }
      ],
      "payable": false,
      "stateMutability": "view",
      "type": "function"
    },
    {
      "constant": true,
      "inputs": [],
      "name": "owner",
      "outputs": [
        {
          "name": "",
          "type": "address"
        }
      ],
      "payable": false,
      "stateMutability": "view",
      "type": "function"
    },
    {
      "constant": false,
      "inputs": [],
      "name": "claimRefund",
      "outputs": [],
      "payable": false,
      "stateMutability": "nonpayable",
      "type": "function"
    },
    {
      "constant": false,
      "inputs": [
        {
          "name": "beneficiary",
          "type": "address"
        }
      ],
      "name": "buyTokens",
      "outputs": [],
      "payable": true,
      "stateMutability": "payable",
      "type": "function"
    },
    {
      "constant": true,
      "inputs": [],
      "name": "hasEnded",
      "outputs": [
        {
          "name": "",
          "type": "bool"
        }
      ],
      "payable": false,
      "stateMutability": "view",
      "type": "function"
    },
    {
      "constant": false,
      "inputs": [
        {
          "name": "newOwner",
          "type": "address"
        }
      ],
      "name": "transferOwnership",
      "outputs": [],
      "payable": false,
      "stateMutability": "nonpayable",
      "type": "function"
    },
    {
      "constant": true,
      "inputs": [],
      "name": "controller",
      "outputs": [
        {
          "name": "",
          "type": "address"
        }
      ],
      "payable": false,
      "stateMutability": "view",
      "type": "function"
    },
    {
      "constant": true,
      "inputs": [],
      "name": "vault",
      "outputs": [
        {
          "name": "",
          "type": "address"
        }
      ],
      "payable": false,
      "stateMutability": "view",
      "type": "function"
    },
    {
      "inputs": [
        {
          "name": "_startTime",
          "type": "uint256"
        },
        {
          "name": "_endTime",
          "type": "uint256"
        },
        {
          "name": "_rate",
          "type": "uint256"
        },
        {
          "name": "_wallet",
          "type": "address"
        },
        {
          "name": "controller",
          "type": "address"
        },
        {
          "name": "_softCap",
          "type": "uint256"
        },
        {
          "name": "_whitelist",
          "type": "address"
        }
      ],
      "payable": false,
      "stateMutability": "nonpayable",
      "type": "constructor"
    },
    {
      "payable": true,
      "stateMutability": "payable",
      "type": "fallback"
    },
    {
      "anonymous": false,
      "inputs": [],
      "name": "VaultKilled",
      "type": "event"
    },
    {
      "anonymous": false,
      "inputs": [],
      "name": "Finalized",
      "type": "event"
    },
    {
      "anonymous": false,
      "inputs": [
        {
          "indexed": true,
          "name": "previousOwner",
          "type": "address"
        },
        {
          "indexed": true,
          "name": "newOwner",
          "type": "address"
        }
      ],
      "name": "OwnershipTransferred",
      "type": "event"
    },
    {
      "anonymous": false,
      "inputs": [
        {
          "indexed": true,
          "name": "purchaser",
          "type": "address"
        },
        {
          "indexed": true,
          "name": "beneficiary",
          "type": "address"
        },
        {
          "indexed": false,
          "name": "value",
          "type": "uint256"
        },
        {
          "indexed": false,
          "name": "amount",
          "type": "uint256"
        }
      ],
      "name": "TokenPurchase",
      "type": "event"
    }
  ],
  "bytecode": "0x6060604052341561000f57600080fd5b60405160e08061219d8339810160405280805190602001909190805190602001909190805190602001909190805190602001909190805190602001909190805190602001909190805190602001909190505080828888888888848282600073ffffffffffffffffffffffffffffffffffffffff168273ffffffffffffffffffffffffffffffffffffffff16141515156100a757600080fd5b806000806101000a81548173ffffffffffffffffffffffffffffffffffffffff021916908373ffffffffffffffffffffffffffffffffffffffff1602179055508260018190555081600260006101000a81548173ffffffffffffffffffffffffffffffffffffffff021916908373ffffffffffffffffffffffffffffffffffffffff16021790555050505084841015151561014157600080fd5b60008311151561015057600080fd5b8360048190555082600581905550505050505033600760006101000a81548173ffffffffffffffffffffffffffffffffffffffff021916908373ffffffffffffffffffffffffffffffffffffffff1602179055506000811115156101b357600080fd5b600260009054906101000a900473ffffffffffffffffffffffffffffffffffffffff166101de6102c0565b808273ffffffffffffffffffffffffffffffffffffffff1673ffffffffffffffffffffffffffffffffffffffff168152602001915050604051809103906000f080151561022a57600080fd5b600960006101000a81548173ffffffffffffffffffffffffffffffffffffffff021916908373ffffffffffffffffffffffffffffffffffffffff160217905550806008819055505080600a60006101000a81548173ffffffffffffffffffffffffffffffffffffffff021916908373ffffffffffffffffffffffffffffffffffffffff16021790555050505050505050506102d0565b604051610b988061160583390190565b611326806102df6000396000f300606060405260043610610112576000357c0100000000000000000000000000000000000000000000000000000000900463ffffffff16806318160ddd1461011d5780632a2fc287146101465780632c4e722e1461016f5780633197cbb61461019857806340193883146101c15780634042b66f146101ea57806348a0baf8146102135780634ef39b7514610268578063521eb273146102a15780637795d569146102f657806378e979251461032f5780637d3d6522146103585780638d4e4083146103855780638da5cb5b146103b2578063b5545a3c14610407578063ec8ac4d81461041c578063ecb70fb71461044a578063f2fde38b14610477578063f77c4791146104b0578063fbfa77cf14610505575b61011b3361055a565b005b341561012857600080fd5b6101306106d9565b6040518082815260200191505060405180910390f35b341561015157600080fd5b6101596106df565b6040518082815260200191505060405180910390f35b341561017a57600080fd5b6101826107a0565b6040518082815260200191505060405180910390f35b34156101a357600080fd5b6101ab6107a6565b6040518082815260200191505060405180910390f35b34156101cc57600080fd5b6101d46107ac565b6040518082815260200191505060405180910390f35b34156101f557600080fd5b6101fd6107b2565b6040518082815260200191505060405180910390f35b341561021e57600080fd5b6102266107b8565b604051808273ffffffffffffffffffffffffffffffffffffffff1673ffffffffffffffffffffffffffffffffffffffff16815260200191505060405180910390f35b341561027357600080fd5b61029f600480803573ffffffffffffffffffffffffffffffffffffffff169060200190919050506107de565b005b34156102ac57600080fd5b6102b46108bc565b604051808273ffffffffffffffffffffffffffffffffffffffff1673ffffffffffffffffffffffffffffffffffffffff16815260200191505060405180910390f35b341561030157600080fd5b61032d600480803573ffffffffffffffffffffffffffffffffffffffff169060200190919050506108e2565b005b341561033a57600080fd5b610342610a3d565b6040518082815260200191505060405180910390f35b341561036357600080fd5b61036b610a43565b604051808215151515815260200191505060405180910390f35b341561039057600080fd5b610398610a52565b604051808215151515815260200191505060405180910390f35b34156103bd57600080fd5b6103c5610a65565b604051808273ffffffffffffffffffffffffffffffffffffffff1673ffffffffffffffffffffffffffffffffffffffff16815260200191505060405180910390f35b341561041257600080fd5b61041a610a8b565b005b610448600480803573ffffffffffffffffffffffffffffffffffffffff1690602001909190505061055a565b005b341561045557600080fd5b61045d610b8c565b604051808215151515815260200191505060405180910390f35b341561048257600080fd5b6104ae600480803573ffffffffffffffffffffffffffffffffffffffff16906020019091905050610b98565b005b34156104bb57600080fd5b6104c3610cf0565b604051808273ffffffffffffffffffffffffffffffffffffffff1673ffffffffffffffffffffffffffffffffffffffff16815260200191505060405180910390f35b341561051057600080fd5b610518610d15565b604051808273ffffffffffffffffffffffffffffffffffffffff1673ffffffffffffffffffffffffffffffffffffffff16815260200191505060405180910390f35b600081600a60009054906101000a900473ffffffffffffffffffffffffffffffffffffffff1673ffffffffffffffffffffffffffffffffffffffff16636f9170f6336000604051602001526040518263ffffffff167c0100000000000000000000000000000000000000000000000000000000028152600401808273ffffffffffffffffffffffffffffffffffffffff1673ffffffffffffffffffffffffffffffffffffffff168152602001915050602060405180830381600087803b151561062257600080fd5b6102c65a03f1151561063357600080fd5b50505060405180519050801561067457503373ffffffffffffffffffffffffffffffffffffffff168173ffffffffffffffffffffffffffffffffffffffff16145b151561067f57600080fd5b6106b7836106b261068e6106df565b6106a46064600554610d3b90919063ffffffff16565b610d5690919063ffffffff16565b610d8c565b91506106ce82600654610f7590919063ffffffff16565b600681905550505050565b60065481565b60006001544210806106f2575060045442115b15610700576000905061079d565b6a0c685fa11e01ec6f000000600654101561071e57607d905061079d565b6a25391ee35a05c54d000000600654101561073c576078905061079d565b6a6342fd08f00f6378000000600654101561075a57606e905061079d565b6b01d77e31ea7449187a0000006006541015610779576069905061079d565b6b03c7cd2317249609d20000006006541015610798576067905061079d565b606490505b90565b60055481565b60045481565b60085481565b60035481565b600a60009054906101000a900473ffffffffffffffffffffffffffffffffffffffff1681565b600760009054906101000a900473ffffffffffffffffffffffffffffffffffffffff1673ffffffffffffffffffffffffffffffffffffffff163373ffffffffffffffffffffffffffffffffffffffff1614151561083a57600080fd5b600760149054906101000a900460ff1615151561085657600080fd5b61085e610b8c565b151561086957600080fd5b61087281610f96565b7f6823b073d48d6e3a7d385eeb601452d680e74bb46afe3255a7d778f3a9b1768160405160405180910390a16001600760146101000a81548160ff02191690831515021790555050565b600260009054906101000a900473ffffffffffffffffffffffffffffffffffffffff1681565b600760009054906101000a900473ffffffffffffffffffffffffffffffffffffffff1673ffffffffffffffffffffffffffffffffffffffff163373ffffffffffffffffffffffffffffffffffffffff1614151561093e57600080fd5b600960009054906101000a900473ffffffffffffffffffffffffffffffffffffffff1673ffffffffffffffffffffffffffffffffffffffff1663cbf0b0c0826040518263ffffffff167c0100000000000000000000000000000000000000000000000000000000028152600401808273ffffffffffffffffffffffffffffffffffffffff1673ffffffffffffffffffffffffffffffffffffffff168152602001915050600060405180830381600087803b15156109fa57600080fd5b6102c65a03f11515610a0b57600080fd5b5050507f4e0c07f2fcf9d4d11256be530691ba0f741a4e0383d0246d76ae093e6be3ca1f60405160405180910390a150565b60015481565b60006008546003541015905090565b600760149054906101000a900460ff1681565b600760009054906101000a900473ffffffffffffffffffffffffffffffffffffffff1681565b600760149054906101000a900460ff161515610aa657600080fd5b610aae610a43565b151515610aba57600080fd5b600960009054906101000a900473ffffffffffffffffffffffffffffffffffffffff1673ffffffffffffffffffffffffffffffffffffffff1663fa89401a336040518263ffffffff167c0100000000000000000000000000000000000000000000000000000000028152600401808273ffffffffffffffffffffffffffffffffffffffff1673ffffffffffffffffffffffffffffffffffffffff168152602001915050600060405180830381600087803b1515610b7657600080fd5b6102c65a03f11515610b8757600080fd5b505050565b60006004544211905090565b600760009054906101000a900473ffffffffffffffffffffffffffffffffffffffff1673ffffffffffffffffffffffffffffffffffffffff163373ffffffffffffffffffffffffffffffffffffffff16141515610bf457600080fd5b600073ffffffffffffffffffffffffffffffffffffffff168173ffffffffffffffffffffffffffffffffffffffff1614151515610c3057600080fd5b8073ffffffffffffffffffffffffffffffffffffffff16600760009054906101000a900473ffffffffffffffffffffffffffffffffffffffff1673ffffffffffffffffffffffffffffffffffffffff167f8be0079c531659141344cd1fd0a4f28419497f9722a3daafe3b4186f6b6457e060405160405180910390a380600760006101000a81548173ffffffffffffffffffffffffffffffffffffffff021916908373ffffffffffffffffffffffffffffffffffffffff16021790555050565b6000809054906101000a900473ffffffffffffffffffffffffffffffffffffffff1681565b600960009054906101000a900473ffffffffffffffffffffffffffffffffffffffff1681565b6000808284811515610d4957fe5b0490508091505092915050565b60008082840290506000841480610d775750828482811515610d7457fe5b04145b1515610d8257600080fd5b8091505092915050565b600080600073ffffffffffffffffffffffffffffffffffffffff168473ffffffffffffffffffffffffffffffffffffffff1614151515610dcb57600080fd5b610dd36110e7565b1515610dde57600080fd5b349050610df48382610d5690919063ffffffff16565b9150610e0b81600354610f7590919063ffffffff16565b6003819055506000809054906101000a900473ffffffffffffffffffffffffffffffffffffffff1673ffffffffffffffffffffffffffffffffffffffff166340c10f1985846000604051602001526040518363ffffffff167c0100000000000000000000000000000000000000000000000000000000028152600401808373ffffffffffffffffffffffffffffffffffffffff1673ffffffffffffffffffffffffffffffffffffffff16815260200182815260200192505050602060405180830381600087803b1515610edd57600080fd5b6102c65a03f11515610eee57600080fd5b50505060405180519050508373ffffffffffffffffffffffffffffffffffffffff163373ffffffffffffffffffffffffffffffffffffffff167f623b3804fa71d67900d064613da8f94b9617215ee90799290593e1745087ad188385604051808381526020018281526020019250505060405180910390a3610f6e611121565b5092915050565b6000808284019050838110151515610f8c57600080fd5b8091505092915050565b610f9e610a43565b1561104a57600960009054906101000a900473ffffffffffffffffffffffffffffffffffffffff1673ffffffffffffffffffffffffffffffffffffffff166343d726d66040518163ffffffff167c0100000000000000000000000000000000000000000000000000000000028152600401600060405180830381600087803b151561102857600080fd5b6102c65a03f1151561103957600080fd5b505050611045816111f4565b6110e4565b600960009054906101000a900473ffffffffffffffffffffffffffffffffffffffff1673ffffffffffffffffffffffffffffffffffffffff16638c52dc416040518163ffffffff167c0100000000000000000000000000000000000000000000000000000000028152600401600060405180830381600087803b15156110cf57600080fd5b6102c65a03f115156110e057600080fd5b5050505b50565b6000806000600154421015801561110057506004544211155b915067016345785d8a0000341015905081801561111a5750805b9250505090565b600960009054906101000a900473ffffffffffffffffffffffffffffffffffffffff1673ffffffffffffffffffffffffffffffffffffffff1663f340fa0134336040518363ffffffff167c0100000000000000000000000000000000000000000000000000000000028152600401808273ffffffffffffffffffffffffffffffffffffffff1673ffffffffffffffffffffffffffffffffffffffff1681526020019150506000604051808303818588803b15156111dd57600080fd5b6125ee5a03f115156111ee57600080fd5b50505050565b600061120c6003600654610d3b90919063ffffffff16565b90506000809054906101000a900473ffffffffffffffffffffffffffffffffffffffff1673ffffffffffffffffffffffffffffffffffffffff166340c10f1983836000604051602001526040518363ffffffff167c0100000000000000000000000000000000000000000000000000000000028152600401808373ffffffffffffffffffffffffffffffffffffffff1673ffffffffffffffffffffffffffffffffffffffff16815260200182815260200192505050602060405180830381600087803b15156112da57600080fd5b6102c65a03f115156112eb57600080fd5b505050604051805190505050505600a165627a7a72305820163be464c961a805e605bab9f2ea04e096823bd5da539a1fae4801117c8928a900296060604052341561000f57600080fd5b604051602080610b9883398101604052808051906020019091905050336000806101000a81548173ffffffffffffffffffffffffffffffffffffffff021916908373ffffffffffffffffffffffffffffffffffffffff160217905550600073ffffffffffffffffffffffffffffffffffffffff168173ffffffffffffffffffffffffffffffffffffffff16141515156100a757600080fd5b80600260006101000a81548173ffffffffffffffffffffffffffffffffffffffff021916908373ffffffffffffffffffffffffffffffffffffffff1602179055506000600260146101000a81548160ff0219169083600281111561010757fe5b021790555050610a7c8061011c6000396000f3006060604052600436106100a4576000357c0100000000000000000000000000000000000000000000000000000000900463ffffffff16806343d726d6146100a9578063521eb273146100be5780638c52dc41146101135780638da5cb5b14610128578063c19d93fb1461017d578063cb13cddb146101b4578063cbf0b0c014610201578063f2fde38b1461023a578063f340fa0114610273578063fa89401a146102a1575b600080fd5b34156100b457600080fd5b6100bc6102da565b005b34156100c957600080fd5b6100d161042e565b604051808273ffffffffffffffffffffffffffffffffffffffff1673ffffffffffffffffffffffffffffffffffffffff16815260200191505060405180910390f35b341561011e57600080fd5b610126610454565b005b341561013357600080fd5b61013b610535565b604051808273ffffffffffffffffffffffffffffffffffffffff1673ffffffffffffffffffffffffffffffffffffffff16815260200191505060405180910390f35b341561018857600080fd5b61019061055a565b604051808260028111156101a057fe5b60ff16815260200191505060405180910390f35b34156101bf57600080fd5b6101eb600480803573ffffffffffffffffffffffffffffffffffffffff1690602001909190505061056d565b6040518082815260200191505060405180910390f35b341561020c57600080fd5b610238600480803573ffffffffffffffffffffffffffffffffffffffff16906020019091905050610585565b005b341561024557600080fd5b610271600480803573ffffffffffffffffffffffffffffffffffffffff169060200190919050506105f9565b005b61029f600480803573ffffffffffffffffffffffffffffffffffffffff1690602001909190505061074e565b005b34156102ac57600080fd5b6102d8600480803573ffffffffffffffffffffffffffffffffffffffff169060200190919050506108e0565b005b6000809054906101000a900473ffffffffffffffffffffffffffffffffffffffff1673ffffffffffffffffffffffffffffffffffffffff163373ffffffffffffffffffffffffffffffffffffffff1614151561033557600080fd5b6000600281111561034257fe5b600260149054906101000a900460ff16600281111561035d57fe5b14151561036957600080fd5b60028060146101000a81548160ff0219169083600281111561038757fe5b02179055507f1cdde67b72a90f19919ac732a437ac2f7a10fc128d28c2a6e525d89ce5cd9d3a60405160405180910390a1600260009054906101000a900473ffffffffffffffffffffffffffffffffffffffff1673ffffffffffffffffffffffffffffffffffffffff166107d03073ffffffffffffffffffffffffffffffffffffffff1631604051600060405180830381858888f19350505050151561042c57600080fd5b565b600260009054906101000a900473ffffffffffffffffffffffffffffffffffffffff1681565b6000809054906101000a900473ffffffffffffffffffffffffffffffffffffffff1673ffffffffffffffffffffffffffffffffffffffff163373ffffffffffffffffffffffffffffffffffffffff161415156104af57600080fd5b600060028111156104bc57fe5b600260149054906101000a900460ff1660028111156104d757fe5b1415156104e357600080fd5b6001600260146101000a81548160ff0219169083600281111561050257fe5b02179055507f599d8e5a83cffb867d051598c4d70e805d59802d8081c1c7d6dffc5b6aca2b8960405160405180910390a1565b6000809054906101000a900473ffffffffffffffffffffffffffffffffffffffff1681565b600260149054906101000a900460ff1681565b60016020528060005260406000206000915090505481565b6000809054906101000a900473ffffffffffffffffffffffffffffffffffffffff1673ffffffffffffffffffffffffffffffffffffffff163373ffffffffffffffffffffffffffffffffffffffff161415156105e057600080fd5b8073ffffffffffffffffffffffffffffffffffffffff16ff5b6000809054906101000a900473ffffffffffffffffffffffffffffffffffffffff1673ffffffffffffffffffffffffffffffffffffffff163373ffffffffffffffffffffffffffffffffffffffff1614151561065457600080fd5b600073ffffffffffffffffffffffffffffffffffffffff168173ffffffffffffffffffffffffffffffffffffffff161415151561069057600080fd5b8073ffffffffffffffffffffffffffffffffffffffff166000809054906101000a900473ffffffffffffffffffffffffffffffffffffffff1673ffffffffffffffffffffffffffffffffffffffff167f8be0079c531659141344cd1fd0a4f28419497f9722a3daafe3b4186f6b6457e060405160405180910390a3806000806101000a81548173ffffffffffffffffffffffffffffffffffffffff021916908373ffffffffffffffffffffffffffffffffffffffff16021790555050565b6000809054906101000a900473ffffffffffffffffffffffffffffffffffffffff1673ffffffffffffffffffffffffffffffffffffffff163373ffffffffffffffffffffffffffffffffffffffff161415156107a957600080fd5b600060028111156107b657fe5b600260149054906101000a900460ff1660028111156107d157fe5b1415156107dd57600080fd5b61082f34600160008473ffffffffffffffffffffffffffffffffffffffff1673ffffffffffffffffffffffffffffffffffffffff16815260200190815260200160002054610a2f90919063ffffffff16565b600160008373ffffffffffffffffffffffffffffffffffffffff1673ffffffffffffffffffffffffffffffffffffffff168152602001908152602001600020819055507fe1fffcc4923d04b559f4d29a8bfc6cda04eb5b0d3c460751c2402c5c5cc9109c8134604051808373ffffffffffffffffffffffffffffffffffffffff1673ffffffffffffffffffffffffffffffffffffffff1681526020018281526020019250505060405180910390a150565b6000600160028111156108ef57fe5b600260149054906101000a900460ff16600281111561090a57fe5b14151561091657600080fd5b600160008373ffffffffffffffffffffffffffffffffffffffff1673ffffffffffffffffffffffffffffffffffffffff1681526020019081526020016000205490506000600160008473ffffffffffffffffffffffffffffffffffffffff1673ffffffffffffffffffffffffffffffffffffffff168152602001908152602001600020819055508173ffffffffffffffffffffffffffffffffffffffff166108fc829081150290604051600060405180830381858888f1935050505015156109dd57600080fd5b8173ffffffffffffffffffffffffffffffffffffffff167fd7dee2702d63ad89917b6a4da9981c90c4d24f8c2bdfd64c604ecae57d8d0651826040518082815260200191505060405180910390a25050565b6000808284019050838110151515610a4657600080fd5b80915050929150505600a165627a7a72305820e5904d84fd21973f0b7b17612c97e2d65a398b8ad2b671a24bf7c23fca9184400029",
  "source": "pragma solidity ^0.4.18;\n\nimport \"../crowdsale/RefundableCrowdsale.sol\";\nimport \"../crowdsale/WhiteListedCrowdsale.sol\";\n\n\n/**\n * @title TriForceNetworkCrowdsale\n */\ncontract TriForceNetworkCrowdsale is RefundableCrowdsale,  WhiteListedCrowdsale {\n\n    function TriForceNetworkCrowdsale(uint256 _startTime, uint256 _endTime, uint256 _rate, address _wallet, address controller, uint256 _softCap, address _whitelist)\n        Crowdsale(_startTime, _endTime, _rate, _wallet, controller)\n        RefundableCrowdsale(_softCap)\n        WhiteListedCrowdsale(_whitelist)\n    {\n\n    }\n\n    function bonusFactor() public constant returns (uint256) {\n        if (now < startTime || now > endTime) {\n            return 0;\n        }\n\n        if (totalSupply < 15000000e18) {\n            return 125;\n        } else if (totalSupply < 45000000e18) {\n            return 120;\n        } else if (totalSupply < 120000000e18) {\n            return 110;\n        } else if (totalSupply < 570000000e18) {\n            return 105;\n        } else if (totalSupply < 1170000000e18) {\n            return 103;\n        } else {\n            return 100;\n        }\n    }\n\n    // low level tokenAddr purchase function\n    function buyTokens(address beneficiary) public onlyWhiteListed(beneficiary) payable {\n        uint256 tokens = _buyTokens(beneficiary, rate.div(100).mul(bonusFactor()));\n        totalSupply = totalSupply.add(tokens);\n    }\n\n    // fallback function can be used to buy tokens\n    function () external payable {\n        buyTokens(msg.sender);\n    }\n}\n",
  "sourcePath": "/mnt/data/dev/TokenSaleContracts/contracts/triForceNetwork/TriForceNetworkCrowdsale.sol",
  "compiler": {
    "name": "solc",
    "version": "0.4.18+commit.9cf6e910.Emscripten.clang"
  },
  "schemaVersion": "1.0.1",
  "updatedAt": "2018-02-16T17:58:36.505Z"
}