{
  "contractName": "WhiteList",
  "abi": [
    {
      "constant": true,
      "inputs": [
        {
          "name": "investor",
          "type": "address"
        }
      ],
      "name": "isWhiteListed",
      "outputs": [
        {
          "name": "",
          "type": "bool"
        }
      ],
      "payable": false,
      "stateMutability": "view",
      "type": "function"
    },
    {
      "constant": true,
      "inputs": [],
      "name": "owner",
      "outputs": [
        {
          "name": "",
          "type": "address"
        }
      ],
      "payable": false,
      "stateMutability": "view",
      "type": "function"
    },
    {
      "constant": false,
      "inputs": [
        {
          "name": "whiteListAddress",
          "type": "address[]"
        }
      ],
      "name": "removeWhiteListedInBulk",
      "outputs": [],
      "payable": false,
      "stateMutability": "nonpayable",
      "type": "function"
    },
    {
      "constant": false,
      "inputs": [
        {
          "name": "whiteListAddress",
          "type": "address[]"
        }
      ],
      "name": "addWhiteListedInBulk",
      "outputs": [],
      "payable": false,
      "stateMutability": "nonpayable",
      "type": "function"
    },
    {
      "constant": false,
      "inputs": [
        {
          "name": "whiteListAddress",
          "type": "address"
        }
      ],
      "name": "removeWhiteListed",
      "outputs": [],
      "payable": false,
      "stateMutability": "nonpayable",
      "type": "function"
    },
    {
      "constant": false,
      "inputs": [
        {
          "name": "newOwner",
          "type": "address"
        }
      ],
      "name": "transferOwnership",
      "outputs": [],
      "payable": false,
      "stateMutability": "nonpayable",
      "type": "function"
    },
    {
      "constant": false,
      "inputs": [
        {
          "name": "whiteListAddress",
          "type": "address"
        }
      ],
      "name": "addWhiteListed",
      "outputs": [],
      "payable": false,
      "stateMutability": "nonpayable",
      "type": "function"
    },
    {
      "anonymous": false,
      "inputs": [
        {
          "indexed": true,
          "name": "investor",
          "type": "address"
        }
      ],
      "name": "Approved",
      "type": "event"
    },
    {
      "anonymous": false,
      "inputs": [
        {
          "indexed": true,
          "name": "investor",
          "type": "address"
        }
      ],
      "name": "Disapproved",
      "type": "event"
    },
    {
      "anonymous": false,
      "inputs": [
        {
          "indexed": true,
          "name": "previousOwner",
          "type": "address"
        },
        {
          "indexed": true,
          "name": "newOwner",
          "type": "address"
        }
      ],
      "name": "OwnershipTransferred",
      "type": "event"
    }
  ],
  "bytecode": "0x6060604052336000806101000a81548173ffffffffffffffffffffffffffffffffffffffff021916908373ffffffffffffffffffffffffffffffffffffffff160217905550610950806100536000396000f300606060405260043610610083576000357c0100000000000000000000000000000000000000000000000000000000900463ffffffff1680636f9170f6146100885780638da5cb5b146100d95780639619dc181461012e578063c7af8f1114610188578063ef125360146101e2578063f2fde38b1461021b578063fb62e08314610254575b600080fd5b341561009357600080fd5b6100bf600480803573ffffffffffffffffffffffffffffffffffffffff1690602001909190505061028d565b604051808215151515815260200191505060405180910390f35b34156100e457600080fd5b6100ec6102e3565b604051808273ffffffffffffffffffffffffffffffffffffffff1673ffffffffffffffffffffffffffffffffffffffff16815260200191505060405180910390f35b341561013957600080fd5b610186600480803590602001908201803590602001908080602002602001604051908101604052809392919081815260200183836020028082843782019150505050505091905050610308565b005b341561019357600080fd5b6101e0600480803590602001908201803590602001908080602002602001604051908101604052809392919081815260200183836020028082843782019150505050505091905050610444565b005b34156101ed57600080fd5b610219600480803573ffffffffffffffffffffffffffffffffffffffff16906020019091905050610588565b005b341561022657600080fd5b610252600480803573ffffffffffffffffffffffffffffffffffffffff16906020019091905050610678565b005b341561025f57600080fd5b61028b600480803573ffffffffffffffffffffffffffffffffffffffff169060200190919050506107cd565b005b6000600160008373ffffffffffffffffffffffffffffffffffffffff1673ffffffffffffffffffffffffffffffffffffffff16815260200190815260200160002060009054906101000a900460ff169050919050565b6000809054906101000a900473ffffffffffffffffffffffffffffffffffffffff1681565b60008060009054906101000a900473ffffffffffffffffffffffffffffffffffffffff1673ffffffffffffffffffffffffffffffffffffffff163373ffffffffffffffffffffffffffffffffffffffff1614151561036557600080fd5b600090505b81518110156104405760016000838381518110151561038557fe5b9060200190602002015173ffffffffffffffffffffffffffffffffffffffff1673ffffffffffffffffffffffffffffffffffffffff16815260200190815260200160002060006101000a81549060ff021916905581818151811015156103e757fe5b9060200190602002015173ffffffffffffffffffffffffffffffffffffffff167f397e549cd5c892fc5a94e2bdf95875a84a2298a36b47123ad898f3ca3af496e860405160405180910390a2808060010191505061036a565b5050565b60008060009054906101000a900473ffffffffffffffffffffffffffffffffffffffff1673ffffffffffffffffffffffffffffffffffffffff163373ffffffffffffffffffffffffffffffffffffffff161415156104a157600080fd5b600090505b815181101561058457600180600084848151811015156104c257fe5b9060200190602002015173ffffffffffffffffffffffffffffffffffffffff1673ffffffffffffffffffffffffffffffffffffffff16815260200190815260200160002060006101000a81548160ff021916908315150217905550818181518110151561052b57fe5b9060200190602002015173ffffffffffffffffffffffffffffffffffffffff167f5d91bd0cecc45fef102af61de92c5462fadc884a5ce9d21c15e8a85198f2349e60405160405180910390a280806001019150506104a6565b5050565b6000809054906101000a900473ffffffffffffffffffffffffffffffffffffffff1673ffffffffffffffffffffffffffffffffffffffff163373ffffffffffffffffffffffffffffffffffffffff161415156105e357600080fd5b600160008273ffffffffffffffffffffffffffffffffffffffff1673ffffffffffffffffffffffffffffffffffffffff16815260200190815260200160002060006101000a81549060ff02191690558073ffffffffffffffffffffffffffffffffffffffff167f397e549cd5c892fc5a94e2bdf95875a84a2298a36b47123ad898f3ca3af496e860405160405180910390a250565b6000809054906101000a900473ffffffffffffffffffffffffffffffffffffffff1673ffffffffffffffffffffffffffffffffffffffff163373ffffffffffffffffffffffffffffffffffffffff161415156106d357600080fd5b600073ffffffffffffffffffffffffffffffffffffffff168173ffffffffffffffffffffffffffffffffffffffff161415151561070f57600080fd5b8073ffffffffffffffffffffffffffffffffffffffff166000809054906101000a900473ffffffffffffffffffffffffffffffffffffffff1673ffffffffffffffffffffffffffffffffffffffff167f8be0079c531659141344cd1fd0a4f28419497f9722a3daafe3b4186f6b6457e060405160405180910390a3806000806101000a81548173ffffffffffffffffffffffffffffffffffffffff021916908373ffffffffffffffffffffffffffffffffffffffff16021790555050565b6000809054906101000a900473ffffffffffffffffffffffffffffffffffffffff1673ffffffffffffffffffffffffffffffffffffffff163373ffffffffffffffffffffffffffffffffffffffff1614151561082857600080fd5b60001515600160008373ffffffffffffffffffffffffffffffffffffffff1673ffffffffffffffffffffffffffffffffffffffff16815260200190815260200160002060009054906101000a900460ff16151514151561088757600080fd5b60018060008373ffffffffffffffffffffffffffffffffffffffff1673ffffffffffffffffffffffffffffffffffffffff16815260200190815260200160002060006101000a81548160ff0219169083151502179055508073ffffffffffffffffffffffffffffffffffffffff167f5d91bd0cecc45fef102af61de92c5462fadc884a5ce9d21c15e8a85198f2349e60405160405180910390a2505600a165627a7a72305820a12165f05a23bcf79c3e8f7eb3eed58655baea21ec316acdc038663e9d72f57f0029",
  "source": "pragma solidity ^0.4.18;\n\nimport \"../ownership/Ownable.sol\";\n\n/**\n * @title WhiteList\n * @dev This contract is used for storing whiteListed addresses before a crowdsale\n * is in progress. Only owner can add and remove white lists and address of this contract must be\n * set in the WhiteListedCrowdsale contract\n */\n\n\ncontract WhiteList is Ownable {\n    mapping (address => bool) internal whiteListMap;\n\n    event Approved(address indexed investor);\n    event Disapproved(address indexed investor);\n\n    function isWhiteListed(address investor) public constant returns (bool) {\n        return whiteListMap[investor];\n    }\n\n    function addWhiteListed(address whiteListAddress) public onlyOwner {\n        require(whiteListMap[whiteListAddress] == false);\n        whiteListMap[whiteListAddress] = true;\n        Approved(whiteListAddress);\n    }\n\n    function addWhiteListedInBulk(address[] whiteListAddress) public onlyOwner {\n        for (uint i = 0; i < whiteListAddress.length; i++) {\n            whiteListMap[whiteListAddress[i]] = true;\n            Approved(whiteListAddress[i]);\n        }\n    }\n\n    function removeWhiteListed(address whiteListAddress) public onlyOwner {\n        delete whiteListMap[whiteListAddress];\n        Disapproved(whiteListAddress);\n    }\n\n    function removeWhiteListedInBulk(address[] whiteListAddress) public onlyOwner {\n        for (uint i = 0; i < whiteListAddress.length; i++) {\n            delete whiteListMap[whiteListAddress[i]];\n            Disapproved(whiteListAddress[i]);\n        }\n    }\n}\n",
  "sourcePath": "/mnt/data/dev/TokenSaleContracts/contracts/crowdsale/WhiteList.sol",
  "compiler": {
    "name": "solc",
    "version": "0.4.18+commit.9cf6e910.Emscripten.clang"
  },
  "schemaVersion": "1.0.1",
  "updatedAt": "2018-02-16T17:58:36.496Z"
}