{
  "contractName": "WhiteListedCrowdsale",
  "abi": [
    {
      "constant": true,
      "inputs": [],
      "name": "whitelistAddr",
      "outputs": [
        {
          "name": "",
          "type": "address"
        }
      ],
      "payable": false,
      "stateMutability": "view",
      "type": "function"
    },
    {
      "inputs": [
        {
          "name": "_whiteListAddr",
          "type": "address"
        }
      ],
      "payable": false,
      "stateMutability": "nonpayable",
      "type": "constructor"
    }
  ],
  "bytecode": "0x6060604052341561000f57600080fd5b60405160208061016183398101604052808051906020019091905050806000806101000a81548173ffffffffffffffffffffffffffffffffffffffff021916908373ffffffffffffffffffffffffffffffffffffffff1602179055505060e78061007a6000396000f300606060405260043610603f576000357c0100000000000000000000000000000000000000000000000000000000900463ffffffff16806348a0baf8146044575b600080fd5b3415604e57600080fd5b60546096565b604051808273ffffffffffffffffffffffffffffffffffffffff1673ffffffffffffffffffffffffffffffffffffffff16815260200191505060405180910390f35b6000809054906101000a900473ffffffffffffffffffffffffffffffffffffffff16815600a165627a7a7230582057b13c28cb460ec4b0b6321744b7c74e95e3729fbe9597d7a5c46b51be19a7ea0029",
  "source": "pragma solidity ^0.4.18;\n\nimport './WhiteList.sol';\n\n/**\n * @title WhiteListedCrowdsale\n * @dev Extension of Crowdsale where only White Listed addresses can\n * buy Tokens.\n */\n\n\ncontract WhiteListedCrowdsale {\n\n    address public whitelistAddr;\n\n    modifier onlyWhiteListed(address _beneficiary) {\n        require(WhiteList(whitelistAddr).isWhiteListed(msg.sender) && _beneficiary == msg.sender);\n        _;\n    }\n\n    function WhiteListedCrowdsale(address _whiteListAddr) public {\n        whitelistAddr = _whiteListAddr;\n    }\n}\n",
  "sourcePath": "/mnt/data/dev/TokenSaleContracts/contracts/crowdsale/WhiteListedCrowdsale.sol",
  "compiler": {
    "name": "solc",
    "version": "0.4.18+commit.9cf6e910.Emscripten.clang"
  },
  "schemaVersion": "1.0.1",
  "updatedAt": "2018-02-16T17:37:23.007Z"
}